:100000000C9463000C948B000C948B000C948B006C
:100010000C948B000C948B000C948B000C9460025D
:100020000C948B000C948B000C948B000C948B0024
:100030000C948B000C948B000C948B000C948B0014
:100040000C9416020C948B000C9428030C9402035D
:100050000C948B000C948B000C948B000C948B00F4
:100060000C948B000C948B000200000000230026EF
:10007000002900000000080002010000030407003E
:100080000000000000000000000000250028002BF8
:100090000000000000240027002A000404040404D7
:1000A0000404040202020202020303030303030125
:1000B00002040810204080010204081020010204FC
:1000C00008102000260411241FBECFEFD8E0DEBFA9
:1000D000CDBF11E0A0E0B1E0E0ECF8E002C0059097
:1000E0000D92A032B107D9F721E0A0E2B1E001C042
:1000F0001D92A53DB207E1F710E0C3E6D0E004C0D1
:100100002197FE010E945304C236D107C9F70E940D
:100110005A030C945E040C940000833081F028F4A0
:10012000813099F08230A1F008958730A9F08830AD
:10013000B9F08430D1F4809180008F7D03C080912C
:1001400080008F7780938000089584B58F7702C0F8
:1001500084B58F7D84BD08958091B0008F7703C0F2
:100160008091B0008F7D8093B0000895CF93DF938E
:1001700090E0FC01E155FF4F2491FC01E556FF4F53
:100180008491882361F190E0880F991FFC01EF565C
:10019000FF4FC591D491FC01E957FF4FA591B49150
:1001A000611109C09FB7F8948881209582238883C4
:1001B000EC912E230BC0623061F49FB7F8948881D4
:1001C000322F309583238883EC912E2B2C939FBF65
:1001D00006C08FB7F894E8812E2B28838FBFDF915C
:1001E000CF910895CF92DF92EF92FF920F931F93DA
:1001F000CF93DF936C017A018B01C0E0D0E0CE1584
:10020000DF0581F0D8016D918D01D601ED91FC9152
:100210000190F081E02DC6010995892B11F02196FE
:10022000EECF7E01C701DF91CF911F910F91FF901B
:10023000EF90DF90CF900895089580E090E00895CA
:10024000FC01538D448D252F30E0842F90E0821BDC
:10025000930B541710F0CF96089501970895FC0161
:10026000918D828D981761F0828DDF01A80FB11DED
:100270005D968C91928D9F5F9F73928F90E0089511
:100280008FEF9FEF0895FC01918D828D981731F0CB
:10029000828DE80FF11D858D90E008958FEF9FEF1F
:1002A0000895FC01918D228D892F90E0805C9F4FF5
:1002B000821B91098F739927089588E391E00E942A
:1002C000510121E0892B09F420E0822F0895FC01DF
:1002D000848DDF01A80FB11DA35ABF4F2C91848DCF
:1002E00090E001968F739927848FA689B7892C9304
:1002F000A089B1898C91837080648C93938D848D57
:10030000981306C00288F389E02D80818F7D808359
:100310000895EF92FF920F931F93CF93DF93EC0119
:1003200081E0888F9B8D8C8D981305C0E889F989B1
:10033000808185FD26C0F62E0B8D10E00F5F1F4FCC
:100340000F731127E02E8C8DE8120CC00FB607FC3E
:10035000FACFE889F989808185FFF5CFCE010E9427
:100360006701F1CF8B8DFE01E80FF11DE35AFF4FBE
:10037000F0829FB7F8940B8FEA89FB8980818062B5
:100380000AC09FB7F894EE89FF896083E889F989EC
:1003900080818370806480839FBF81E090E0DF91E3
:1003A000CF911F910F91FF90EF900895CF93DF931E
:1003B000EC01888D8823C9F0EA89FB89808185FD5D
:1003C00005C0A889B9898C9186FD0FC00FB607FCBE
:1003D000F5CF808185FFF2CFA889B9898C9185FFFF
:1003E000EDCFCE010E946701E7CFDF91CF91089555
:1003F00080E090E0892B29F00E945D0181110C942E
:1004000000000895009769F0FC0101900020E9F7D1
:100410003197AF01481B590BBC0188E391E00C9464
:10042000F20080E090E008950E9459041F920F921C
:100430000FB60F9211242F933F938F939F93AF93F7
:10044000BF938091340190913501A0913601B09114
:1004500037013091330123E0230F2D3720F401962B
:10046000A11DB11D05C026E8230F0296A11DB11DD7
:10047000209333018093340190933501A09336018A
:10048000B093370180912F0190913001A0913101FB
:10049000B09132010196A11DB11D80932F0190935F
:1004A0003001A0933101B0933201BF91AF919F9180
:1004B0008F913F912F910F900FBE0F901F90189525
:1004C0001F920F920FB60F9211242F933F934F93C9
:1004D0005F936F937F938F939F93AF93BF93CF93CC
:1004E000DF93EF93FF9380912B0190912C01A091CA
:1004F0002D01B0912E01892B8A2B8B2B49F19091E4
:100500002A018091000089278093000080912B01AF
:1005100090912C01A0912D01B0912E011816190671
:100520001A061B060CF05BC080912B0190912C01E8
:10053000A0912D01B0912E010197A109B1098093DD
:100540002B0190932C01A0932D01B0932E0147C055
:1005500020910001E8E6F0E0E4918FEF8093000144
:10056000E130B9F098F0E230C9F4809170008D7FED
:100570008093700081E08093B0008091B100887F0B
:1005800084608093B1001092B30008C010926E0096
:1005900005C080916F008D7F80936F0030E0F9017E
:1005A000ED58FF4F8491F901E155FF4FD491F901C6
:1005B000E556FF4FC491CC2391F081110E948D002C
:1005C000EC2FF0E0EE0FFF1FE957FF4FA591B4911C
:1005D0009FB7F8948C91D095D823DC939FBFFF915F
:1005E000EF91DF91CF91BF91AF919F918F917F91CB
:1005F0006F915F914F913F912F910F900FBE0F9090
:100600001F9018951F920F920FB60F9211242F93DF
:100610003F934F935F936F937F938F939F93AF938A
:10062000BF93EF93FF9388E391E00E946701FF91EE
:10063000EF91BF91AF919F918F917F916F915F915A
:100640004F913F912F910F900FBE0F901F901895D3
:100650001F920F920FB60F9211242F938F939F9397
:10066000EF93FF93E0914801F09149018081E0917F
:100670004E01F0914F0182FD12C090818091510195
:100680008F5F8F7320915201821751F0E0915101D9
:10069000F0E0E85CFE4F958F8093510101C08081AE
:1006A000FF91EF919F918F912F910F900FBE0F901F
:1006B0001F901895789484B5826084BD84B581605C
:1006C00084BD85B5826085BD85B5816085BD80911D
:1006D0006E00816080936E00109281008091810095
:1006E000826080938100809181008160809381008D
:1006F000809180008160809380008091B10084604F
:100700008093B1008091B00081608093B0008091AF
:100710007A00846080937A0080917A00826080936E
:100720007A0080917A00816080937A0080917A00CB
:10073000806880937A001092C100E0914801F091A6
:10074000490182E08083E0914401F09145011082EB
:10075000E0914601F09147018FEC808310925001A7
:10076000E0914C01F0914D0186E08083E0914A01D7
:10077000F0914B01808180618083E0914A01F0918A
:100780004B01808188608083E0914A01F0914B01A8
:10079000808180688083E0914A01F0914B018081E3
:1007A0008F7D808361E089E00E94B60061E08AE08D
:1007B0000E94B60061E08BE00E94B60062E082E039
:1007C0000E94B60062E083E00E94B60062E084E02E
:1007D0000E94B60062E085E00E94B60062E086E01A
:1007E0000E94B60062E087E00E94B60062E088E006
:1007F0000E94B600CBE7D0E007EB10E093EAE92EC9
:1008000090E0F92EFE018491F801C490F701D49094
:10081000DD2071F081110E948D00ED2DF0E0EE0FD2
:10082000FF1FE759FF4FA591B4918C918C2119F4CA
:1008300083E191E002C08AE191E00E94020287E137
:1008400091E00E9402020E94F801DCCFE8E3F1E0AF
:100850001382128288EE93E0A0E0B0E08483958357
:10086000A683B78385E091E09183808385EC90E057
:100870009587848784EC90E09787868780EC90E06A
:10088000918B808B81EC90E0938B828B82EC90E05B
:10089000958B848B86EC90E0978B868B118E128ED5
:1008A000138E148E0895EE0FFF1F0590F491E02D26
:1008B000099481E090E0F8940C945E04F894FFCFE2
:1008C000FF000000008901F2002001D60151012F34
:1008D0000143014C4F57000D0A006869676800002A
:00000001FF
