:100000000C945D000C9485000C9485000C94850084
:100010000C9485000C9485000C9485000C9485004C
:100020000C9485000C9485000C9485000C94560368
:100030000C9485000C9485000C9485000C9485002C
:100040000C94B4020C9485000C9424030C94FE02CE
:100050000C9485000C9485000C9485000C9485000C
:100060000C9485000C9485000000000024002700FB
:100070002A0000000000250028002B0004040404CE
:100080000404040402020202020203030303030342
:10009000010204081020408001020408102001021F
:1000A00004081020000000080002010000030407FB
:1000B0000000000000000000170411241FBECFEF55
:1000C000D8E0DEBFCDBF11E0A0E0B1E0EAE0FDE0A6
:1000D00002C005900D92A631B107D9F721E0A6E143
:1000E000B1E001C01D92A53EB207E1F710E0CDE5F9
:1000F000D0E004C02197FE010E947806CC35D107DC
:10010000C9F70E9475040C9483060C940000CF92EA
:10011000DF92EF92FF92DC01A03282E0B8070CF090
:100120003EC0B7FD06C0A53BB1052CF0A4EBB0E086
:1001300002C0A0E0B0E08091E30128E830E069016E
:10014000C81AD10887FDD394CC0CDD1CCC0CDD1C67
:100150000D2C000CEE08FF088091E40128E532E048
:10016000281B310987FD3395220F331F220F331FC0
:10017000A901330F660B770B9A01AB012C193D09CE
:100180004E095F090E94330624EB30E040E050E066
:100190000E940906C20ED31EE41EF51ED6019091E0
:1001A000E2019C3098F58091E30148E850E0481B5B
:1001B000510987FD5395440F551F440F551FA41730
:1001C000B5078CF08091E40128E532E0281B310965
:1001D00087FD3395220F331F220F331FAD012A17DE
:1001E0003B070CF4A90142505109440F551F2FB78A
:1001F000F894892F90E0FC01EE0FFF1F8E0F9F1FD8
:10020000FC01E354FE4F528341832FBFFF90EF90D8
:10021000DF90CF90089580E480937C0080917A00F5
:10022000806480937A0080917A0086FDFCCF809173
:1002300078002091790090E0922B089590E0FC01E5
:10024000EC55FF4F2491FC01E057FF4F3491FC0126
:10025000E458FF4FE491EE2309F43CC0222339F126
:10026000233091F038F42130A9F0223001F584B523
:100270008F7D12C0273091F02830A1F02430B9F4DE
:10028000809180008F7D03C0809180008F77809364
:1002900080000DC084B58F7784BD09C08091B00007
:1002A0008F7703C08091B0008F7D8093B000F0E025
:1002B000EE0FFF1FEE58FF4FA591B4919FB7F89432
:1002C000611104C08C913095382302C0EC913E2B13
:1002D0003C939FBF08953FB7F89480911C01909183
:1002E0001D01A0911E01B0911F0126B5A89B05C05C
:1002F0002F3F19F00196A11DB11D3FBFBA2FA92FA5
:10030000982F8827820F911DA11DB11DBC01CD0121
:1003100042E0660F771F881F991F4A95D1F708950D
:10032000CF92DF92EF92FF920F931F93CF93DF93C1
:100330006C017A018B01C0E0D0E0CE15DF0581F0C1
:10034000D8016D918D01D601ED91FC910190F08164
:10035000E02DC6010995892B11F02196EECF7E0183
:10036000C701DF91CF911F910F91FF90EF90DF9028
:10037000CF900895089580E090E00895FC01538D9A
:10038000448D252F30E0842F90E0821B930B54176F
:1003900010F0CF96089501970895FC01918D828DFC
:1003A000981761F0828DDF01A80FB11D5D968C91C9
:1003B000928D9F5F9F73928F90E008958FEF9FEFD4
:1003C0000895FC01918D828D981731F0828DE80F90
:1003D000F11D858D90E008958FEF9FEF0895FC014A
:1003E000918D228D892F90E0805C9F4F821B910917
:1003F0008F739927089580E291E00E94EF0121E038
:10040000892B09F420E0822F0895FC01848DDF01FF
:10041000A80FB11DA35ABF4F2C91848D90E0019677
:100420008F739927848FA689B7892C93A089B18966
:100430008C91837080648C93938D848D981306C007
:100440000288F389E02D80818F7D80830895EF926B
:10045000FF920F931F93CF93DF93EC0181E0888F7E
:100460009B8D8C8D981305C0E889F989808185FD65
:1004700026C0F62E0B8D10E00F5F1F4F0F73112754
:10048000E02E8C8DE8120CC00FB607FCFACFE8897D
:10049000F989808185FFF5CFCE010E940502F1CF59
:1004A0008B8DFE01E80FF11DE35AFF4FF0829FB7DD
:1004B000F8940B8FEA89FB89808180620AC09FB71C
:1004C000F894EE89FF896083E889F98980818370D7
:1004D000806480839FBF81E090E0DF91CF911F9186
:1004E0000F91FF90EF900895CF93DF93EC01888DEB
:1004F0008823C9F0EA89FB89808185FD05C0A88928
:10050000B9898C9186FD0FC00FB607FCF5CF8081AD
:1005100085FFF2CFA889B9898C9185FFEDCFCE01F7
:100520000E940502E7CFDF91CF91089580E090E02F
:10053000892B29F00E94FB0181110C940000089581
:10054000009769F0FC0101900020E9F73197AF01B5
:10055000481B590BBC0180E291E00C94900180E0B3
:1005600090E008950E947E061F920F920FB60F92A0
:1005700011242F933F938F939F93AF93BF938091B9
:10058000180190911901A0911A01B0911B013091AD
:10059000170123E0230F2D3720F40196A11DB11D73
:1005A00005C026E8230F0296A11DB11D2093170157
:1005B0008093180190931901A0931A01B0931B0125
:1005C00080911C0190911D01A0911E01B0911F010D
:1005D0000196A11DB11D80931C0190931D01A09354
:1005E0001E01B0931F01BF91AF919F918F913F91D9
:1005F0002F910F900FBE0F901F9018951F920F9282
:100600000FB60F9211242F933F934F935F936F93E5
:100610007F938F939F93AF93BF93EF93FF9380E26A
:1006200091E00E940502FF91EF91BF91AF919F91E0
:100630008F917F916F915F914F913F912F910F908B
:100640000FBE0F901F9018951F920F920FB60F922A
:1006500011242F938F939F93EF93FF93E091300199
:10066000F09131018081E0913601F091370182FDF6
:1006700012C09081809139018F5F8F7320913A0170
:10068000821751F0E0913901F0E0E05EFE4F958F66
:100690008093390101C08081FF91EF919F918F91EB
:1006A0002F910F900FBE0F901F9018951F920F92D1
:1006B0000FB60F9211242F933F934F935F936F9335
:1006C0007F938F939F93AF93BF93EF93FF9380910B
:1006D000160187FF05C010928500109284001BC090
:1006E00020911601022E000C330B8091E10190E065
:1006F0002817390784F480911601082E000C990BF5
:10070000FC01EE0FFF1F8E0F9F1FFC01E354FE4FF5
:10071000808186FD15C0809116018F5F8093160140
:1007200020911601022E000C330B8091E10190E024
:1007300028173907C4F4809116018C3064F113C076
:1007400080911601082E000C990BFC01EE0FFF1F83
:100750008E0F9F1FFC01E354FE4F808160E08F737A
:100760000E941E01D8CF809184009091850004964C
:1007700080349C4918F480E49CE905C08091840091
:1007800090918500049690938900809388008FEF64
:10079000809316013BC020918400309185008091A8
:1007A0001601082E000C990BFC01EE0FFF1F8E0F97
:1007B0009F1FFC01E354FE4F81819281820F931FA2
:1007C000909389008093880080911601082E000C78
:1007D000990BFC01EE0FFF1F8E0F9F1FFC01E354CE
:1007E000FE4F808186FF12C080911601082E000CFA
:1007F000990BFC01EE0FFF1F8E0F9F1FFC01E354AE
:10080000FE4F808161E08F730E941E01FF91EF9186
:10081000BF91AF919F918F917F916F915F914F9118
:100820003F912F910F900FBE0F901F90189510922F
:1008300023011092220188EE93E0A0E0B0E08093C3
:10084000240190932501A0932601B093270184E011
:1008500091E0909321018093200185EC90E09093AA
:100860002D0180932C0184EC90E090932F018093D4
:100870002E0180EC90E0909331018093300181EC67
:1008800090E0909333018093320182EC90E090935A
:1008900035018093340186EC90E09093370180938A
:1008A00036011092390110923A0110923B011092D8
:1008B0003C018091E1018C30A0F491E0980F90937D
:1008C000E1018093E20190E0FC01EE0FFF1F8E0F2B
:1008D0009F1FFC01E354FE4F88EB9BE092838183D2
:1008E00008958FEF8093E2010895CF93DF93CDB702
:1008F000DEB7A1970FB6F894DEBF0FBECDBF7894D8
:1009000084B5826084BD84B5816084BD85B5826014
:1009100085BD85B5816085BD80916E0081608093C5
:100920006E0010928100809181008260809381002E
:10093000809181008160809381008091800081603E
:10094000809380008091B10084608093B100809199
:10095000B00081608093B00080917A0084608093C1
:100960007A0080917A00826080937A0080917A0088
:10097000816080937A0080917A00806880937A0009
:100980001092C100EEE9F0E02491EAE8F0E08491F1
:100990008823C9F090E0880F991FFC01E859FF4FA8
:1009A00045915491FC01EE58FF4FA591B4919FB72A
:1009B000F894FA0180812095822380838C91E22F24
:1009C000E823EC939FBFE0913001F091310182E088
:1009D0008083E0912C01F0912D011082E0912E0195
:1009E000F0912F018FEC808310923801E091340157
:1009F000F091350186E08083E0913201F09133017E
:100A0000808180618083E0913201F09133018081A7
:100A100088608083E0913201F091330180818068A9
:100A20008083E0913201F091330180818F7D80835A
:100A30008091E2018C3008F068C0E2E9F0E0249196
:100A4000EEE7F0E08491882399F090E0880F991FF9
:100A5000FC01E859FF4FA591B491FC01EE58FF4FFE
:100A6000859194918FB7F894EC91E22BEC938FBF22
:100A70008091E201E82FF0E09F01220F331FE20F87
:100A8000F31FE354FE4F9081907C9260908310920C
:100A9000E3011092E4016CE00E946C06FCE08F9F81
:100AA000B001112440E050E09B01240F351FF901F3
:100AB000EE0FFF1F2E0F3F1FF901E354FE4F9081F1
:100AC00096FD16C04F5F5F4F4C30510569F781119D
:100AD0000FC01092800082E0809381001092850008
:100AE00010928400B19A80916F00826080936F00B1
:100AF000E091E201F0E0CF01880F991FE80FF91FA4
:100B0000E354FE4F8081806480839AE0892E912C8B
:100B1000A12CB12C0E940B016C01990FEE08FF086B
:100B2000F7FE20C06DE280E291E00E9427022227BA
:100B30003327A9012C193D094E095F0919A2CE01DD
:100B400081967C01CA01B901A50194010E943B066E
:100B5000605DF70162937F01211531054105510563
:100B600089F715C0A701960119A2CE0181967C01D3
:100B7000CA01B901A50194010E943B06605DF7011D
:100B800062937F01211531054105510589F7C701A0
:100B90000E94A00242E050E062E171E080E291E058
:100BA0000E9490010E940B018C3291405CF58CE315
:100BB00090E00E9487000E946B012B013C0186E9B6
:100BC000C82ED12CE12CF12C0E946B01DC01CB0151
:100BD00084199509A609B709883E9340A105B10576
:100BE00098F321E0C21AD108E108F10888EE480E16
:100BF00083E0581E611C711CC114D104E104F1048E
:100C000019F704C080E090E00E9487000E949602DD
:100C100081CF052E97FB1EF400940E94200657FDFD
:100C200007D00E943B0607FC03D04EF40C9420062C
:100C300050954095309521953F4F4F4F5F4F089508
:100C400090958095709561957F4F8F4F9F4F089538
:100C50000E945D06A59F900DB49F900DA49F800DEE
:100C6000911D11240895B7FF0C9428060E942806B0
:100C7000821B930B0895A1E21A2EAA1BBB1BFD0138
:100C80000DC0AA1FBB1FEE1FFF1FA217B307E4076B
:100C9000F50720F0A21BB30BE40BF50B661F771FC3
:100CA000881F991F1A9469F76095709580959095A3
:100CB0009B01AC01BD01CF010895A29FB001B39F7C
:100CC000C001A39F700D811D1124911DB29F700D55
:100CD000811D1124911D0895991B79E004C0991F6D
:100CE000961708F0961B881F7A95C9F78095089586
:100CF000EE0FFF1F0590F491E02D099481E090E044
:0A0D0000F8940C948306F894FFCFDA
:100D0A000000000027029001BE017402EF01CD012C
:060D1A00E1010D0A0000DA
:00000001FF
