:100000000C9462000C948A000C948A000C948A0070
:100010000C948A000C948A000C948A000C948A0038
:100020000C948A000C948A000C948A000C948A0028
:100030000C948A000C948A000C948A000C948A0018
:100040000C94C7010C948A000C9437020C94110292
:100050000C948A000C948A000C948A000C948A00F8
:100060000C948A000C948A000000000024002700F1
:100070002A000000000023002600290000000000E4
:10008000250028002B0004040404040404040202D4
:100090000202020203030303030301020408102007
:1000A0004080010204081020010204081020000012
:1000B0000008000201000003040700000000000027
:1000C00000008A0311241FBECFEFD8E0DEBFCDBFF2
:1000D00011E0A0E0B1E0E8E8F7E002C005900D9281
:1000E000AC32B107D9F721E0ACE2B1E001C01D921A
:1000F000A63DB207E1F710E0C2E6D0E004C02197C8
:10010000FE010E94B703C136D107C9F70E946902F8
:100110000C94C2030C940000833081F028F48130E9
:1001200099F08230A1F008958730A9F08830B9F0B5
:100130008430D1F4809180008F7D03C08091800055
:100140008F7780938000089584B58F7702C084B53F
:100150008F7D84BD08958091B0008F7703C080911A
:10016000B0008F7D8093B0000895CF92DF92EF9220
:10017000FF920F931F93CF93DF936C017A018B0152
:10018000C0E0D0E0CE15DF0581F0D8016D918D0182
:10019000D601ED91FC910190F081E02DC601099509
:1001A000892B11F02196EECF7E01C701DF91CF910F
:1001B0001F910F91FF90EF90DF90CF9008950895D9
:1001C00080E090E00895FC01538D448D252F30E0B0
:1001D000842F90E0821B930B541710F0CF96089554
:1001E00001970895FC01918D828D981761F0828DA1
:1001F000DF01A80FB11D5D968C91928D9F5F9F735B
:10020000928F90E008958FEF9FEF0895FC01918DFC
:10021000828D981731F0828DE80FF11D858D90E069
:1002200008958FEF9FEF0895FC01918D228D892F06
:1002300090E0805C9F4F821B91098F7399270895EE
:100240008CE291E00E94140121E0892B09F420E066
:10025000822F0895FC01848DDF01A80FB11DA35AE0
:10026000BF4F2C91848D90E001968F739927848FD6
:10027000A689B7892C93A089B1898C9183708064F9
:100280008C93938D848D981306C00288F389E02D9A
:1002900080818F7D80830895EF92FF920F931F934B
:1002A000CF93DF93EC0181E0888F9B8D8C8D981329
:1002B00005C0E889F989808185FD26C0F62E0B8D61
:1002C00010E00F5F1F4F0F731127E02E8C8DE81287
:1002D0000CC00FB607FCFACFE889F989808185FF49
:1002E000F5CFCE010E942A01F1CF8B8DFE01E80FE0
:1002F000F11DE35AFF4FF0829FB7F8940B8FEA8904
:10030000FB89808180620AC09FB7F894EE89FF89DB
:100310006083E889F98980818370806480839FBFCE
:1003200081E090E0DF91CF911F910F91FF90EF90CE
:100330000895CF93DF93EC01888D8823C9F0EA8973
:10034000FB89808185FD05C0A889B9898C9186FDCE
:100350000FC00FB607FCF5CF808185FFF2CFA889CB
:10036000B9898C9185FFEDCFCE010E942A01E7CF9C
:10037000DF91CF91089580E090E0892B29F00E94D1
:10038000200181110C94000008950E94BD031F926A
:100390000F920FB60F9211242F933F938F939F9339
:1003A000AF93BF938091D2019091D301A091D401DA
:1003B000B091D5013091D10123E0230F2D3720F4E6
:1003C0000196A11DB11D05C026E8230F0296A11DAF
:1003D000B11D2093D1018093D2019093D301A093BA
:1003E000D401B093D5018091CD019091CE01A0911F
:1003F000CF01B091D0010196A11DB11D8093CD0117
:100400009093CE01A093CF01B093D001BF91AF9153
:100410009F918F913F912F910F900FBE0F901F9042
:1004200018951F920F920FB60F9211242F933F939E
:100430004F935F936F937F938F939F93AF93BF93EC
:10044000EF93FF938CE291E00E942A01FF91EF91DC
:10045000BF91AF919F918F917F916F915F914F91DC
:100460003F912F910F900FBE0F901F9018951F92E4
:100470000F920FB60F9211242F938F939F93EF93A8
:10048000FF93E0913C01F0913D018081E0914201B8
:10049000F091430182FD12C09081809145018F5FF0
:1004A0008F7320914601821751F0E0914501F0E0F1
:1004B000E45DFE4F958F8093450101C08081FF91DF
:1004C000EF919F918F912F910F900FBE0F901F90E2
:1004D0001895789484B5826084BD84B5816084BDAC
:1004E00085B5826085BD85B5816085BD80916E00D2
:1004F000816080936E001092810080918100826003
:10050000809381008091810081608093810080913F
:1005100080008160809380008091B100846080932E
:10052000B1008091B00081608093B00080917A002A
:10053000846080937A0080917A00826080937A0050
:1005400080917A00816080937A0080917A0080683F
:1005500080937A001092C100E0913C01F0913D013E
:1005600082E08083E0913801F09139011082E091BE
:100570003A01F0913B018FEC808310924401E091AD
:100580004001F091410186E08083E0913E01F091CD
:100590003F01808180618083E0913E01F0913F01C5
:1005A000808188608083E0913E01F0913F018081ED
:1005B00080688083E0913E01F0913F0180818F7DD2
:1005C000808361EAE62E60E0F62EF70124917DE853
:1005D000C72E70E0D72EF60184918823C1F090E0F9
:1005E000880F991FFC01E859FF4FA591B491FC01B8
:1005F000E458FF4FC591D4913FB7F8949C91822F56
:10060000809598239C939881892388833FBFC5EA6E
:10061000D0E0FE01249101E910E0F80184918823E3
:1006200099F090E0880F991FFC01E859FF4FA591C0
:10063000B491FC01E458FF4F859194919FB7F894D1
:100640008C91822B8C939FBF25EBA22E20E0B22EA3
:1006500039EB832E30E0932EF5018491F7017490ED
:10066000F60164906620A1F081110E948C00E62DB5
:10067000F0E0EE0FFF1FEE58FF4FA591B4918C9163
:10068000782231E020E009F430E0832F922F02C07D
:1006900080E090E09093CC018093CB012091C90140
:1006A0003091CA01232B59F5019749F545E150E0F6
:1006B00062E171E08CE291E00E94B50042E050E01E
:1006C00068E271E08CE291E00E94B500F40184914F
:1006D000FE017490F8016490662089F081110E94F7
:1006E0008C00E62DF0E0EE0FFF1FE458FF4FA591C0
:1006F000B4919FB7F8948C91782A7C929FBF809197
:10070000CB019091CC019093CA018093C9010E94C2
:10071000BB01A2CFECE2F1E01382128288EE93E0FB
:10072000A0E0B0E084839583A683B78384E091E062
:100730009183808385EC90E09587848784EC90E0BA
:100740009787868780EC90E0918B808B81EC90E09E
:10075000938B828B82EC90E0958B848B86EC90E07F
:10076000978B868B118E128E138E148E0895EE0F3A
:10077000FF1F0590F491E02D099481E090E0F8943A
:080780000C94C203F894FFCFB2
:10078800000000004C01B500E30099011401F200DB
:1007980006015468652073656E736F722069732053
:0C07A800746F7563686564000D0A000042
:00000001FF
