:100000000C9462000C948A000C948A000C948A0070
:100010000C948A000C948A000C948A000C948A0038
:100020000C948A000C948A000C948A000C948A0028
:100030000C948A000C948A000C948A000C948A0018
:100040000C94CB030C948A000C943B040C94150480
:100050000C948A000C948A000C948A000C948A00F8
:100060000C948A000C948A000000000024002700F1
:100070002A0000000000250028002B0000000000DE
:1000800023002600290004040404040404040202DA
:100090000202020203030303030301020408102007
:1000A0004080010204081020010204081020000012
:1000B0000008000201000003040700000000000027
:1000C0000000060611241FBECFEFD8E0DEBFCDBF73
:1000D00011E0A0E0B1E0EAE8FEE002C005900D9278
:1000E000A039B107D9F723E0A0E9B1E001C01D9222
:1000F000A030B207E1F710E0C2E6D0E004C02197DB
:10010000FE010E943807C136D107C9F70E946D046D
:100110000C9443070C940000833081F028F4813064
:1001200099F08230A1F008958730A9F08830B9F0B5
:100130008430D1F4809180008F7D03C08091800055
:100140008F7780938000089584B58F7702C084B53F
:100150008F7D84BD08958091B0008F7703C080911A
:10016000B0008F7D8093B0000895CF93DF93282F48
:1001700030E0F901E255FF4F8491F901E656FF4F57
:10018000D491F901EA57FF4FC491CC2391F081112A
:100190000E948C00EC2FF0E0EE0FFF1FE458FF4FA1
:1001A000A591B491EC91ED2381E090E021F480E001
:1001B00002C080E090E0DF91CF9108951F93CF932C
:1001C000DF93282F30E0F901E255FF4F8491F901C8
:1001D000E656FF4FD491F901EA57FF4FC491CC2363
:1001E000C1F0162F81110E948C00EC2FF0E0EE0F71
:1001F000FF1FEE58FF4FA591B4919FB7F8941111CE
:1002000004C08C91D095D82302C0EC91DE2BDC93F6
:100210009FBFDF91CF911F910895CF93DF9390E01F
:10022000FC01E656FF4F2491FC01EA57FF4F8491F1
:10023000882361F190E0880F991FFC01E859FF4F76
:10024000C591D491FC01EE58FF4FA591B491611175
:1002500009C09FB7F8948881209582238883EC9108
:100260002E230BC0623061F49FB7F8948881322F3F
:10027000309583238883EC912E2B2C939FBF06C04F
:100280008FB7F894E8812E2B28838FBFDF91CF9111
:1002900008953FB7F89480915F0290916002A09119
:1002A0006102B091620226B5A89B05C02F3F19F0EC
:1002B0000196A11DB11D3FBFBA2FA92F982F8827E6
:1002C000820F911DA11DB11DBC01CD0142E0660F41
:1002D000771F881F991F4A95D1F708958F929F9293
:1002E000AF92BF92CF92DF92EF92FF926B017C01AF
:1002F0000E9449014B015C01C114D104E104F104E5
:10030000F1F00E944901DC01CB0188199909AA0981
:10031000BB09883E9340A105B10570F321E0C21AE4
:10032000D108E108F10888EE880E83E0981EA11C30
:10033000B11CC114D104E104F10419F7DDCFFF9021
:10034000EF90DF90CF90BF90AF909F908F900895E7
:10035000CF92DF92EF92FF920F931F93CF93DF9391
:100360006C017A018B01C0E0D0E0CE15DF0581F091
:10037000D8016D918D01D601ED91FC910190F08134
:10038000E02DC6010995892B11F02196EECF7E0153
:10039000C701DF91CF911F910F91FF90EF90DF90F8
:1003A000CF900895089580E090E00895FC01538D6A
:1003B000448D252F30E0842F90E0821B930B54173F
:1003C00010F0CF96089501970895FC01918D828DCC
:1003D000981761F0828DDF01A80FB11D5D968C9199
:1003E000928D9F5F9F73928F90E008958FEF9FEFA4
:1003F0000895FC01918D828D981731F0828DE80F60
:10040000F11D858D90E008958FEF9FEF0895FC0119
:10041000918D228D892F90E0805C9F4F821B9109E6
:100420008F739927089583E692E00E94070221E0E6
:10043000892B09F420E0822F0895FC01848DDF01CF
:10044000A80FB11DA35ABF4F2C91848D90E0019647
:100450008F739927848FA689B7892C93A089B18936
:100460008C91837080648C93938D848D981306C0D7
:100470000288F389E02D80818F7D80830895EF923B
:10048000FF920F931F93CF93DF93EC0181E0888F4E
:100490009B8D8C8D981305C0E889F989808185FD35
:1004A00026C0F62E0B8D10E00F5F1F4F0F73112724
:1004B000E02E8C8DE8120CC00FB607FCFACFE8894D
:1004C000F989808185FFF5CFCE010E941D02F1CF11
:1004D0008B8DFE01E80FF11DE35AFF4FF0829FB7AD
:1004E000F8940B8FEA89FB89808180620AC09FB7EC
:1004F000F894EE89FF896083E889F98980818370A7
:10050000806480839FBF81E090E0DF91CF911F9155
:100510000F91FF90EF900895CF93DF93EC01888DBA
:100520008823C9F0EA89FB89808185FD05C0A889F7
:10053000B9898C9186FD0FC00FB607FCF5CF80817D
:1005400085FFF2CFA889B9898C9185FFEDCFCE01C7
:100550000E941D02E7CFDF91CF91089580E090E0E7
:10056000892B29F00E94130281110C940000089538
:10057000CF93DF93C2E0D0E061E085E00E94DE002F
:1005800062E370E080E090E00E946E0160E085E050
:100590000E94DE0062E370E080E090E00E946E0165
:1005A00061E084E00E94DE0062E370E080E090E0C1
:1005B0000E946E0160E084E00E94DE0062E370E071
:1005C00080E090E00E946E0161E083E00E94DE0026
:1005D00062E370E080E090E00E946E0160E083E002
:1005E0000E94DE0062E370E080E090E00E946E0115
:1005F00061E082E00E94DE0062E370E080E090E073
:100600000E946E0160E082E00E94DE0062E370E022
:1006100080E090E00E946E0161E082E00E94DE00D6
:1006200062E370E080E090E00E946E0160E082E0B2
:100630000E94DE0062E370E080E090E00E946E01C4
:1006400061E083E00E94DE0062E370E080E090E021
:100650000E946E0160E083E00E94DE0062E370E0D1
:1006600080E090E00E946E0161E084E00E94DE0084
:1006700062E370E080E090E00E946E0160E084E060
:100680000E94DE0062E370E080E090E00E946E0174
:1006900061E085E00E94DE0062E370E080E090E0CF
:1006A0000E946E0160E085E00E94DE0062E370E07F
:1006B00080E090E00E946E01219709F05DCF61E03B
:1006C00084E00E94DE0061E083E00E94DE0061E0E1
:1006D00085E00E94DE0061E082E00E94DE0068ECBE
:1006E00070E080E090E00E946E0160E084E00E9493
:1006F000DE0060E083E00E94DE0060E085E00E94B2
:10070000DE0060E082E00E94DE0068EC70E080E0E5
:1007100090E0DF91CF910C946E01CF93DF93EC01C9
:1007200061E00E94DE006CE271E080E090E00E94F7
:100730006E0160E08C2F0E94DE006CE271E080E0D0
:1007400090E00E946E01CE01DF91CF910895CF938A
:10075000DF93009779F0FC0101900020E9F73197D1
:10076000AF01481B590BBC0183E692E00E94A8012F
:10077000EC0102C0C0E0D0E042E050E066E171E090
:1007800083E692E00E94A8018C0F9D1FDF91CF911C
:1007900008950E943E071F920F920FB60F921124E8
:1007A0002F933F938F939F93AF93BF9380915B025F
:1007B00090915C02A0915D02B0915E0230915A026C
:1007C00023E0230F2D3720F40196A11DB11D05C094
:1007D00026E8230F0296A11DB11D20935A02809393
:1007E0005B0290935C02A0935D02B0935E028091E5
:1007F0005F0290916002A0916102B0916202019645
:10080000A11DB11D80935F0290936002A0936102CD
:10081000B0936202BF91AF919F918F913F912F91C1
:100820000F900FBE0F901F9018951F920F920FB64A
:100830000F9211242F933F934F935F936F937F9366
:100840008F939F93AF93BF93EF93FF9383E692E0D1
:100850000E941D02FF91EF91BF91AF919F918F91E7
:100860007F916F915F914F913F912F910F900FBEAC
:100870000F901F9018951F920F920FB60F92112490
:100880002F938F939F93EF93FF93E0917302F091D7
:1008900074028081E0917902F0917A0282FD12C0A7
:1008A000908180917C028F5F8F7320917D028217EF
:1008B00051F0E0917C02F0E0ED59FD4F958F80936F
:1008C0007C0201C08081FF91EF919F918F912F91C8
:1008D0000F900FBE0F901F901895789484B582608A
:1008E00084BD84B5816084BD85B5826085BD85B5D4
:1008F000816085BD80916E00816080936E00109252
:1009000081008091810082608093810080918100CC
:10091000816080938100809180008160809380005D
:100920008091B10084608093B1008091B0008160BB
:100930008093B00080917A00846080937A008091E7
:100940007A00826080937A0080917A00816080933F
:100950007A0080917A00806880937A001092C100BA
:10096000E0917302F091740282E08083E0916F0263
:10097000F09170021082E0917102F09172028FEC9E
:10098000808310927B02E0917702F091780286E0FA
:100990008083E0917502F09176028081806180838E
:1009A000E0917502F0917602808188608083E09109
:1009B0007502F0917602808180688083E0917502F3
:1009C000F091760280818F7D808361E084E00E94D7
:1009D0000D0161E083E00E940D0161E082E00E9470
:1009E0000D0161E085E00E940D0162E08AE00E9455
:1009F0000D0162E089E00E940D0162E08BE00E943F
:100A00000D0162E088E00E940D0180E480937C008B
:100A100080917A00806480937A0080917A0086FDCC
:100A2000FCCF609178008091790070E0782B072EE0
:100A3000000C880B990B611571058105910511F06A
:100A40000E94CC06C2E9D1E063E0C62ED12CE12C95
:100A5000F12C0E947E06A70196010E94D506DC01BA
:100A6000CB010296A11DB11D8993999322E0C8354F
:100A7000D20779F705E610E08091900190919101FD
:100A8000843691054CF42091580230915902821716
:100A9000930709F072C02BC08436910509F44EC04B
:100AA00089E291E00E94A7030E94B802C8ECD0E05E
:100AB00061E082E00E94DE0068EC70E080E090E09F
:100AC0000E946E0160E082E00E94DE0068EC70E04F
:100AD00080E090E00E946E01219751F764EF71E091
:100AE00080E090E00E946E010E94AE02C5CF83E4D8
:100AF00091E00E94A703C0919001D09191012196AD
:100B0000D0939101C0939001109259021092580213
:100B1000C436D1051CF752E9C52E51E0D52EE12C83
:100B2000F12CEC16FD06D4F6F601819191916F013E
:100B30000E948D03FFEFEF1AFF0AF3CF80E691E0EA
:100B40000E94A7030E94B802C8ECD0E061E084E0F4
:100B50000E94DE0068EC70E080E090E00E946E0190
:100B600060E084E00E94DE0068EC70E080E090E0ED
:100B70000E946E01219751F7B1CF8CE791E00E945E
:100B8000A7038AE00E94B500892B19F484E090E065
:100B900018C089E00E94B500892B19F483E090E029
:100BA00010C088E00E94B500892B19F482E090E023
:100BB00008C08BE00E94B500892B09F08FCF85E03B
:100BC00090E00E948D038F3F2FEF920709F486CFAC
:100BD0002091580230915902F901EE0FFF1FEE5695
:100BE000FE4F408151814817590739F42F5F3F4F1D
:100BF000309359022093580271CF89E191E00E940D
:100C0000A703109391010093900168CFE3E6F2E00F
:100C10001382128288EE93E0A0E0B0E08483958393
:100C2000A683B78388E091E09183808385EC90E090
:100C30009587848784EC90E09787868780EC90E0A6
:100C4000918B808B81EC90E0938B828B82EC90E097
:100C5000958B848B86EC90E0978B868B118E128E11
:100C6000138E148E08958F929F92AF92BF92CF925F
:100C7000DF92EF92FF92CF93DF93EC01688179814D
:100C80008A819B81611571058105910521F464E2DA
:100C900079ED8BE597E02DE133EF41E050E00E94E4
:100CA000D50649015A019B01AC01A7EAB1E40E94B3
:100CB000F4066B017C01ACEEB4EFA50194010E9437
:100CC0000207DC01CB018C0D9D1DAE1DBF1DB7FFC2
:100CD00003C00197A109B04888839983AA83BB8385
:100CE000BC01CD019F77DF91CF91FF90EF90DF9016
:100CF000CF90BF90AF909F908F9008958F929F92CA
:100D0000AF92BF92CF92DF92EF92FF92609100017B
:100D100070910101809102019091030161157105AB
:100D20008105910521F464E279ED8BE597E02DE1F1
:100D300033EF41E050E00E94D50649015A019B0182
:100D4000AC01A7EAB1E40E94F4066B017C01ACEEB1
:100D5000B4EFA50194010E940207DC01CB018C0DC8
:100D60009D1DAE1DBF1DB7FF03C00197A109B0486F
:100D70008093000190930101A0930201B0930301BD
:100D8000BC01CD019F77FF90EF90DF90CF90BF9097
:100D9000AF909F908F900895609300017093010130
:100DA00080930201909303010895052E97FB1EF492
:100DB00000940E94EC0657FD07D00E94070707FC2D
:100DC00003D04EF40C94EC06509540953095219547
:100DD0003F4F4F4F5F4F0895909580957095619567
:100DE0007F4F8F4F9F4F08950E942907A59F900D19
:100DF000B49F900DA49F800D911D11240895B7FFFD
:100E00000C94F4060E94F406821B930B0895A1E251
:100E10001A2EAA1BBB1BFD010DC0AA1FBB1FEE1F74
:100E2000FF1FA217B307E407F50720F0A21BB30BBF
:100E3000E40BF50B661F771F881F991F1A9469F73B
:100E400060957095809590959B01AC01BD01CF0197
:100E50000895A29FB001B39FC001A39F700D811D93
:100E60001124911DB29F700D811D1124911D0895B3
:100E7000EE0FFF1F0590F491E02D099481E090E0C2
:0A0E8000F8940C944307F894FFCF98
:100E8A0001000000000000003F02A801D6018C0208
:100E9A000702E501F9010D0A00726573706F737438
:100EAA006120657272616461004A6F676F206669CA
:100EBA006E616C697A61646F20636F6D2066616C24
:100ECA0068610050726F6E746F2070617261206188
:100EDA002070726F78696D6120726F64616461005D
:100EEA004A6F676F2066696E616C697A61646F2008
:100EFA00636F6D207375636573736F0055737561E6
:100F0A0072696F20726573706F6E64656E646F00CC
:00000001FF
