:100000000C9463000C948B000C948B000C948B006C
:100010000C948B000C948B000C948B000C948B0034
:100020000C948B000C948B000C948B000C943C046F
:100030000C948B000C948B000C948B000C948B0014
:100040000C949A030C948B000C940A040C94E40313
:100050000C948B000C948B000C948B000C948B00F4
:100060000C948B000C948B000000000024002700EF
:100070002A0000000000250028002B0000000000DE
:1000800023002600290004040404040404040202DA
:100090000202020203030303030301020408102007
:1000A0004080010204081020010204081020000012
:1000B0000008000201000003040700000000000027
:1000C0000000FD04C10711241FBECFEFD8E0DEBF42
:1000D000CDBF11E0A0E0B1E0E0E9F5E102C005909C
:1000E0000D92A435B107D9F722E0A4E5B1E001C033
:1000F0001D92AA33B207E1F710E0C2E6D0E004C0D7
:100100002197FE010E94B908C136D107C9F70E94A4
:100110009B050C94BB0A0C940000CF92DF92EF92E7
:10012000FF92DC01A03282E0B8070CF03EC0B7FDC0
:1001300006C0A53BB1052CF0A4EBB0E002C0A0E0E6
:10014000B0E08091340228E830E06901C81AD10893
:1001500087FDD394CC0CDD1CCC0CDD1C0D2C000CCD
:10016000EE08FF088091350228E532E0281B3109AE
:1001700087FD3395220F331F220F331FA901330F41
:10018000660B770B9A01AB012C193D094E095F09EB
:100190000E94290824EB30E040E050E00E94FF0775
:1001A000C20ED31EE41EF51ED601909133029C3080
:1001B00098F58091340248E850E0481B510987FDCA
:1001C0005395440F551F440F551FA417B5078CF0C6
:1001D0008091350228E532E0281B310987FD3395EF
:1001E000220F331F220F331FAD012A173B070CF4D8
:1001F000A90142505109440F551F2FB7F894892F78
:1002000090E0FC01EE0FFF1F8E0F9F1FFC01E350DB
:10021000FE4F528341832FBFFF90EF90DF90CF902E
:100220000895833081F028F4813099F08230A1F074
:1002300008958730A9F08830B9F08430D1F48091E6
:1002400080008F7D03C0809180008F778093800035
:10025000089584B58F7702C084B58F7D84BD0895DD
:100260008091B0008F7703C08091B0008F7D809324
:10027000B0000895CF93DF93282F30E0F901E255C5
:10028000FF4F8491F901E656FF4FD491F901EA57E7
:10029000FF4FC491CC2391F081110E941101EC2FEA
:1002A000F0E0EE0FFF1FE458FF4FA591B491EC91E1
:1002B000ED2381E090E021F480E002C080E090E056
:1002C000DF91CF9108951F93CF93DF93282F30E0D4
:1002D000F901E255FF4F8491F901E656FF4FD491A1
:1002E000F901EA57FF4FC491CC23C1F0162F8111B9
:1002F0000E941101EC2FF0E0EE0FFF1FEE58FF4FB0
:10030000A591B4919FB7F894111104C08C91D09528
:10031000D82302C0EC91DE2BDC939FBFDF91CF91FD
:100320001F910895CF93DF9390E0FC01E656FF4FB5
:100330002491FC01EA57FF4F8491882361F190E0FA
:10034000880F991FFC01E859FF4FC591D491FC011A
:10035000EE58FF4FA591B491611109C09FB7F89471
:100360008881209582238883EC912E230BC06230F4
:1003700061F49FB7F8948881322F30958323888366
:10038000EC912E2B2C939FBF06C08FB7F894E88179
:100390002E2B28838FBFDF91CF9108953FB7F8941C
:1003A00080915C0190915D01A0915E01B0915F012F
:1003B00026B5A89B05C02F3F19F00196A11DB11DC0
:1003C0003FBFBA2FA92F982F8827820F911DA11DFB
:1003D000B11DBC01CD0142E0660F771F881F991F38
:1003E0004A95D1F708958F929F92AF92BF92CF9284
:1003F000DF92EF92FF926B017C010E94CE014B01D4
:100400005C01C114D104E104F104F1F00E94CE01B9
:10041000DC01CB0188199909AA09BB09883E9340E0
:10042000A105B10570F321E0C21AD108E108F10875
:1004300088EE880E83E0981EA11CB11CC114D10463
:10044000E104F10419F7DDCFFF90EF90DF90CF903A
:10045000BF90AF909F908F9008950895CF92DF92B4
:10046000EF92FF920F931F93CF93DF936C017A016A
:100470008B01C0E0D0E0CE15DF0581F0D8016D9191
:100480008D01D601ED91FC910190F081E02DC60126
:100490000995892B11F02196EECF7E01C701DF91DE
:1004A000CF911F910F91FF90EF90DF90CF90089523
:1004B00080E090E00895FC01538D448D252F30E0BD
:1004C000842F90E0821B930B541710F0CF96089561
:1004D00001970895FC01918D828D981761F0828DAE
:1004E000DF01A80FB11D5D968C91928D9F5F9F7368
:1004F000928F90E008958FEF9FEF0895FC01918D0A
:10050000828D981731F0828DE80FF11D858D90E076
:1005100008958FEF9FEF0895FC01918D228D892F13
:1005200090E0805C9F4F821B91098F7399270895FB
:1005300080E691E00E948C0221E0892B09F420E002
:10054000822F0895FC01848DDF01A80FB11DA35AED
:10055000BF4F2C91848D90E001968F739927848FE3
:10056000A689B7892C93A089B1898C918370806406
:100570008C93938D848D981306C00288F389E02DA7
:1005800080818F7D80830895EF92FF920F931F9358
:10059000CF93DF93EC0181E0888F9B8D8C8D981336
:1005A00005C0E889F989808185FD26C0F62E0B8D6E
:1005B00010E00F5F1F4F0F731127E02E8C8DE81294
:1005C0000CC00FB607FCFACFE889F989808185FF56
:1005D000F5CFCE010E94A202F1CF8B8DFE01E80F74
:1005E000F11DE35AFF4FF0829FB7F8940B8FEA8911
:1005F000FB89808180620AC09FB7F894EE89FF89E9
:100600006083E889F98980818370806480839FBFDB
:1006100081E090E0DF91CF911F910F91FF90EF90DB
:100620000895CF93DF93EC01888D8823C9F0EA8980
:10063000FB89808185FD05C0A889B9898C9186FDDB
:100640000FC00FB607FCF5CF808185FFF2CFA889D8
:10065000B9898C9185FFEDCFCE010E94A202E7CF30
:10066000DF91CF91089580E090E0892B29F00E94DE
:10067000980281110C9400000895CF93DF930097A6
:1006800079F0FC0101900020E9F73197AF01481B98
:10069000590BBC0180E691E00E942E02EC0102C0E1
:1006A000C0E0D0E042E050E068E171E080E691E037
:1006B0000E942E028C0F9D1FDF91CF910895CF9342
:1006C000DF93EC0188819981009711F00E9457090E
:1006D000198218821D821C821B821A82DF91CF919F
:1006E00008950E94A60A0F931F93CF93DF93EC0106
:1006F00088819981009729F02A813B812617370745
:1007000088F48B016F5F7F4F0E94E009009761F0D2
:10071000998388831B830A832C813D81232B11F4C9
:10072000FC01108281E001C080E0DF91CF911F9138
:100730000F9108951F920F920FB60F9211242F93CD
:100740003F938F939F93AF93BF9380915801909164
:100750005901A0915A01B0915B013091570123E0FA
:10076000230F2D3720F40196A11DB11D05C026E8E9
:10077000230F0296A11DB11D2093570180935801AC
:1007800090935901A0935A01B0935B0180915C0151
:1007900090915D01A0915E01B0915F010196A11D54
:1007A000B11D80935C0190935D01A0935E01B093B5
:1007B0005F01BF91AF919F918F913F912F910F90CA
:1007C0000FBE0F901F9018951F920F920FB60F92A9
:1007D00011242F933F934F935F936F937F938F9346
:1007E0009F93AF93BF93EF93FF9380E691E00E94B6
:1007F000A202FF91EF91BF91AF919F918F917F9155
:100800006F915F914F913F912F910F900FBE0F907D
:100810001F9018951F920F920FB60F9211242F93CD
:100820008F939F93EF93FF93E0917001F09171018B
:100830008081E0917601F091770182FD12C0908174
:10084000809179018F5F8F7320917A01821751F027
:10085000E0917901F0E0E05AFE4F958F80937901A5
:1008600001C08081FF91EF919F918F912F910F9007
:100870000FBE0F901F9018951F920F920FB60F92F8
:1008800011242F933F934F935F936F937F938F9395
:100890009F93AF93BF93EF93FF938091540187FF92
:1008A00005C010928500109284001BC02091540155
:1008B000022E000C330B8091210290E0281739079B
:1008C00084F480915401082E000C990BFC01EE0F6A
:1008D000FF1F8E0F9F1FFC01E350FE4F808186FD9E
:1008E00015C0809154018F5F809354012091540171
:1008F000022E000C330B8091210290E0281739075B
:10090000C4F4809154018C3064F113C0809154017F
:10091000082E000C990BFC01EE0FFF1F8E0F9F1F7E
:10092000FC01E350FE4F808160E08F730E94630101
:10093000D8CF8091840090918500049680349C49A2
:1009400018F480E49CE905C08091840090918500B2
:10095000049690938900809388008FEF80935401D0
:100960003BC0209184003091850080915401082E75
:10097000000C990BFC01EE0FFF1F8E0F9F1FFC0157
:10098000E350FE4F81819281820F931F90938900E3
:100990008093880080915401082E000C990BFC0173
:1009A000EE0FFF1F8E0F9F1FFC01E350FE4F808153
:1009B00086FF12C080915401082E000C990BFC0197
:1009C000EE0FFF1F8E0F9F1FFC01E350FE4F808133
:1009D00061E08F730E946301FF91EF91BF91AF912E
:1009E0009F918F917F916F915F914F913F912F9147
:1009F0000F900FBE0F901F901895109263011092E8
:100A0000620188EE93E0A0E0B0E0809364019093EF
:100A10006501A0936601B09367018AE091E090932D
:100A200061018093600185EC90E090936D0180936B
:100A30006C0184EC90E090936F0180936E0180ECE8
:100A400090E0909371018093700181EC90E090931D
:100A500073018093720182EC90E090937501809312
:100A6000740186EC90E09093770180937601109268
:100A7000790110927A0110927B0110927C01809191
:100A800021028C30A0F491E0980F90932102809382
:100A9000330290E0FC01EE0FFF1F8E0F9F1FFC0141
:100AA000E350FE4F88EB9BE09283818303C08FEF7E
:100AB0008093330210922A0285E08093280284E01A
:100AC0008093290261E085E00E94920160E08091BC
:100AD00029020E94920180E29EE4A0E0B0E08093AF
:100AE0002F0290933002A0933102B0933202109201
:100AF00023021092220210922502109224021092D8
:100B000027021092260260E070E082E292E00E94EA
:100B10007303811104C082E292E00C945F0310928F
:100B20002702109226026AE171E0809122029091E0
:100B300023020C94B40ACF93DF93CDB7DEB7689746
:100B40000FB6F894DEBF0FBECDBF789484B5826037
:100B500084BD84B5816084BD85B5826085BD85B561
:100B6000816085BD80916E00816080936E001092DF
:100B7000810080918100826080938100809181005A
:100B800081608093810080918000816080938000EB
:100B90008091B10084608093B1008091B000816049
:100BA0008093B00080917A00846080937A00809175
:100BB0007A00826080937A0080917A0081608093CD
:100BC0007A0080917A00806880937A001092C10048
:100BD000809133028C3008F051C061E086E00E94C1
:100BE000920180913302E82FF0E09F01220F331F22
:100BF000E20FF31FE350FE4F9081907C966090834C
:100C000010923402109235026CE00E9499089CE028
:100C1000899FB001112440E050E09B01240F351F53
:100C2000F901EE0FFF1F2E0F3F1FF901E350FE4F9A
:100C3000908196FD16C04F5F5F4F4C30510569F7AC
:100C400081110FC01092800082E080938100109289
:100C5000850010928400B19A80916F008260809329
:100C60006F00E0913302F0E0CF01880F991FE80F89
:100C7000F91FE350FE4F808180648083E091700112
:100C8000F091710182E08083E0916C01F0916D013F
:100C90001082E0916E01F0916F018FEC80831092D1
:100CA0007801E0917401F091750186E08083E09114
:100CB0007201F0917301808180618083E091720103
:100CC000F0917301808188608083E0917201F091DE
:100CD0007301808180688083E0917201F0917301DB
:100CE00080818F7D808380E090E00E948D0060E0B5
:100CF00084E00E94920161E085E00E9492018BE114
:100D000091E00E943D038AE590E00E948D0083E01F
:100D1000E82EF12C93E2C92ED12C28E3A22EB12C7F
:100D20008E010F5F1F4F60E085E00E946301C701E5
:100D30000197F1F761E085E00E946301C601019728
:100D4000F1F760E085E00E94630180912A02882328
:100D500029F061E0809128020E94920160E0809178
:100D600028020E946301C7010197F1F761E08091B9
:100D700028020E946301C6010197F1F760E08091AB
:100D800028020E94630180912A02882329F060E0F2
:100D9000809128020E9492010E94CE0160932B0252
:100DA00070932C0280932D0290932E028091290241
:100DB0000E943A01892BE9F40E94CE0140902B0257
:100DC00050902C0260902D0270902E02DC01CB011D
:100DD00084199509A609B70940902F025090300256
:100DE0006090310270903202481659066A067B06FE
:100DF000E8F60E94CE0160932B0270932C02809340
:100E00002D0290932E02809129020E943A01892B93
:100E1000E9F00E94CE0140902B0250902C0260908D
:100E20002D0270902E02DC01CB0184199509A609D0
:100E3000B70940902F0250903002609031027090BC
:100E40003202481659066A067B06E8F60E94CE0171
:100E500020912B0230912C02CB01821B930BB50108
:100E60000E94A508CB0170935601609355011C8A1E
:100E70001B8A1E8A1D8A188E1F8A4AE0B8010E94AA
:100E8000CA07F80101900020E9F731974F01801A55
:100E9000910AB401CE0143960E947303811105C0EB
:100EA000CE0143960E945F0307C0988E8F8AB801D7
:100EB0008B899C890E94B40A80912202909123021E
:100EC000009741F06B897C896115710509F046C076
:100ED0000E9457098B899C89909323028093220258
:100EE0008D899E8990932502809324028F89988D05
:100EF00090932702809326021C8A1B8A1E8A1D8AD1
:100F0000188E1F8A8B899C89009711F00E945709BF
:100F100064EF71E080E090E00E94F3018091550160
:100F2000909156010A977CF484E391E00E943D037E
:100F300080E090E00E948D006CED75E080E090E034
:100F40000E94F30108C083E491E00E943D038AE51A
:100F500090E00E948D000E943303E5CE4091240270
:100F6000509125022F89388D4217530708F4B0CFCE
:100F70000E94B40A8F89988D90932702809326024D
:100F8000BFCF8091220290912302009711F00C9420
:100F900057090895BB274A3031F4992322F4BDE262
:100FA000909581959F4F0C94D607BB27FB01552741
:100FB000AA27880F991FAA1FA41710F0A41B8395B6
:100FC0005051B9F7A05DAA3308F0A95DA19300972D
:100FD00079F7B111B1931192CB010C94EF07DC01B9
:100FE000FC01672F71917723E1F7329704C07C9160
:100FF0006D9370836291AE17BF07C8F30895052EF5
:1010000097FB1EF400940E94160857FD07D00E941B
:10101000680807FC03D04EF40C94160850954095D0
:10102000309521953F4F4F4F5F4F08959095809594
:10103000709561957F4F8F4F9F4F08950E948A084A
:10104000A59F900DB49F900DA49F800D911D11241C
:101050000895B7FF0C941E080E941E08821B930B74
:1010600008952F923F924F925F926F927F928F924C
:101070009F92AF92BF92CF92DF92EF92FF920F9327
:101080001F93CF93DF93CDB7DEB7CA1BDB0B0FB631
:10109000F894DEBF0FBECDBF09942A8839884888EE
:1010A0005F846E847D848C849B84AA84B984C88484
:1010B000DF80EE80FD800C811B81AA81B981CE0F7B
:1010C000D11D0FB6F894DEBF0FBECDBFED01089560
:1010D000A1E21A2EAA1BBB1BFD010DC0AA1FBB1F3C
:1010E000EE1FFF1FA217B307E407F50720F0A21BAE
:1010F000B30BE40BF50B661F771F881F991F1A941B
:1011000069F760957095809590959B01AC01BD0144
:10111000CF010895A29FB001B39FC001A39F700D9E
:10112000811D1124911DB29F700D811D1124911DEF
:101130000895991B79E004C0991F961708F0961B33
:10114000881F7A95C9F780950895AA1BBB1B51E1AA
:1011500007C0AA1FBB1FA617B70710F0A61BB70B27
:10116000881F991F5A95A9F780959095BC01CD01CC
:101170000895EE0FFF1F0590F491E02D09940F9351
:101180001F93CF93DF938230910510F482E090E0BB
:10119000E0913802F091390220E030E0A0E0B0E0C8
:1011A000309719F140815181028113814817590705
:1011B000C8F08417950769F4109731F012960C93D4
:1011C000129713961C9327C000933802109339028C
:1011D00022C02115310519F04217530718F49A015E
:1011E000BD01EF01DF01F801DBCF21153105F9F079
:1011F000281B390B2430310580F48A819B816115CD
:10120000710521F0FB019383828304C0909339021E
:1012100080933802FE01329644C0FE01E20FF31FB4
:101220008193919322503109398328833AC02091C8
:10123000360230913702232B41F420910201309184
:101240000301309337022093360220910001309140
:1012500001012115310541F42DB73EB7409104013C
:1012600050910501241B350BE0913602F0913702B5
:10127000E217F307A0F42E1B3F0B2817390778F06D
:10128000AC014E5F5F4F2417350748F04E0F5F1FCC
:1012900050933702409336028193919302C0E0E06D
:1012A000F0E0CF01DF91CF911F910F910895CF937F
:1012B000DF93009709F481C0FC01329713821282F8
:1012C000A0913802B0913902109781F420813181C8
:1012D000820F931F20913602309137022817390769
:1012E00051F5F0933702E093360267C0ED0120E03C
:1012F00030E0CE17DF0740F44A815B819E01411543
:101300005105F1F0EA01F5CFD383C28340815181C9
:10131000840F951FC817D90759F488819981840FC4
:10132000951F0296918380838A819B819383828318
:101330002115310529F4F0933902E09338023DC0BC
:10134000E901FB83EA8349915991C40FD51FEC173A
:10135000FD0761F480819181840F951F0296E90158
:1013600099838883828193819B838A83E0E0F0E084
:1013700012968D919C911397009719F0FD01DC0155
:10138000F7CF8D919C9111979D012E5F3F4F820F5A
:10139000931F20913602309137022817390769F4DC
:1013A000309729F4109239021092380202C0138249
:1013B0001282B0933702A0933602DF91CF91089545
:1013C000A0E0B0E0E6EEF9E00C943508EC010097FF
:1013D00021F4CB010E94BF08B4C0FC01E60FF71F47
:1013E0009C0122503109E217F30708F4A8C0D90183
:1013F0000D911C91119706171707B0F005301105D4
:1014000008F49BC0C80104978617970708F495C095
:1014100002501109061B170B019311936D937C93D6
:10142000CF010E94570989C05B01A01AB10A4C0183
:10143000800E911EA0913802B0913902612C712C5E
:10144000E12CF12C109709F446C08D919C911197D5
:10145000A815B905B1F56C0142E0C40ED11CCA143F
:10146000DB0478F14C018A189B08640142E0C40E49
:10147000D11C1296BC9012971396AC91B5E0CB1686
:10148000D10440F0B282A38391828082D9016D930E
:101490007C9309C00E5F1F4F800F911FF90191834C
:1014A0008083EB2DFA2FE114F10431F0D70113966C
:1014B000FC93EE93129741C0F0933902E093380207
:1014C0003CC06816790608F43C017D0112960D9027
:1014D000BC91A02DB7CF809136029091370288162B
:1014E0009906E1F466167706C8F4809100019091A0
:1014F0000101009741F48DB79EB7409104015091CE
:101500000501841B950BE817F907C8F4F09337021F
:10151000E0933602F901718360830FC0CB010E9412
:10152000BF087C01009759F0A801BE010E94AB0AD8
:10153000CE010E945709C70104C0CE0102C080E05D
:1015400090E0CDB7DEB7EEE00C94510881E090E07A
:10155000F8940C94BB0AFB01DC0102C001900D92CF
:1015600041505040D8F70895FB01DC0101900D92E5
:101570000020E1F7089510E0C2E6D0E004C0FE01CB
:101580000E94B9082196C336D107C9F7F894FFCF56
:1015900000003A02200000000000C4022E025B029C
:1015A00011038C026A027E020D0A004C656E646FA4
:1015B000206461646F7320646F2073656E736F7253
:1015C0002E2E2E00416272696E646F20706F7274ED
:1015D000616F0046656368616E646F20706F72743E
:0415E000616F000037
:00000001FF
