:100000000C945D000C947A000C947A000C947A00A5
:100010000C947A000C947A000C947A000C94B70338
:100020000C947A000C947A000C947A000C947A0068
:100030000C947A000C947A000C947A000C947A0058
:100040000C946D030C947A000C947A000C947A0052
:100050000C947A000C947A000C947A000C947A0038
:100060000C947A000C947A00000000080002010051
:100070000003040700000000000000000200000070
:1000800000250028002B0000000000240027002A83
:100090000004040404040404040202020202020331
:1000A000030303030301020408102040800102043B
:1000B0000810200102040810200011241FBECFEFF9
:1000C000D8E0DEBFCDBF11E0A0E0B1E0EEE9F9E09D
:1000D00002C005900D92A230B107D9F721E0A2E04D
:1000E000B1E001C01D92AC31B207E1F70E941304E8
:1000F0000C94CD040C940000EFEAF0E02491EBE9BD
:10010000F0E08491882399F090E0880F991FFC011A
:10011000E957FF4FA591B491FC01E358FF4F85913A
:1001200094918FB7F894EC91E22BEC938FBF0895E4
:100130008F929F92AF92BF92CF92DF92EF92FF92F7
:100140001F93CF93DF93EC01809100018A3021F05F
:100150008F3F09F0EBC104C0ECE7F0E014916DC0F3
:100160008AE080930001ECE7F0E014911F3F09F46E
:10017000DDC1113009F440C030F1123009F05DC02A
:100180001092B0001092B1008091B0008260809314
:10019000B0008091B10081608093B100EBE9F0E0A4
:1001A000E491F0E0EE0FFF1FE358FF4F859194912B
:1001B00090930D0180930C01EFEAF0E0E491E0935D
:1001C0000B0112E0B0C114BC15BC84B5826084BDC3
:1001D00085B5816085BDEBE9F0E0E491F0E0EE0FDC
:1001E000FF1FE358FF4F85919491EFEAF0E0E4910F
:1001F000E0930F0110E097C11092800010928100EF
:10020000809181008860809381008091810081606D
:1002100080938100EBE9F0E0E491F0E0EE0FFF1F46
:10022000E358FF4F85919491EFEAF0E0E491E09379
:100230000E010E947C0011E0A3C017FD77C10E944F
:100240007C00812F8D7F09F09BC06E01E12CF12C89
:1002500060E072E18AE790E0A70196010E948C04B9
:1002600049015A01BA01A9014150510961097109B5
:100270004F3F51056105710509F008F445C060E480
:1002800072E48FE090E0A70196010E948C04BA010D
:10029000A90141505109610971091230E9F44F3F38
:1002A00051056105710509F008F4DDC060E970EDE4
:1002B00083E090E0A70196010E948C04BA01A90195
:1002C00041505109610971094F3F5105610571059F
:1002D00009F020F583E04DC04F3F510561057105E0
:1002E000A9F0A0F068E478EE81E090E0A701960123
:1002F0000E948C04BA01A901415051096109710998
:10030000112309F4E1C0D8C081E001C082E01111DD
:1003100030C095B5987F892B85BD69C068E478EEBB
:1003200081E090E0A70196010E948C04BA01A90126
:1003300041505109610971094F3F5105610571052E
:1003400009F008F48EC064E274EF80E090E0A70149
:1003500096010E948C04BA01A9014150510961091A
:1003600071094F3F51056105710511F008F07DC01D
:1003700085E09091B100987F892B8093B10031C0C6
:100380006E01E12CF12C60E072E18AE790E0A701B8
:1003900096010E948C04BA01A901415051096109DA
:1003A00071094115510581E06807710580F068E425
:1003B00078EE81E090E0A70196010E948C04BA01DA
:1003C000A901415051096109710983E001C081E02F
:1003D000113039F490918100987F892B80938100AE
:1003E00018C01130B1F0123049F111119FC047BD52
:1003F0008FEF9FEFDC018093180190931901A09378
:100400001A01B0931B0180916E00826080936E0090
:100410008DC050938900409388008FEF9FEFDC01DF
:100420008093140190931501A0931601B0931701C6
:1004300080916F00826080936F0078C04093B3001A
:100440008FEF9FEFDC018093100190931101A09337
:100450001201B0931301809170008260809370004C
:1004600065C084E086CF82E084CF62E17AE780E0F5
:1004700090E0A70196010E948C04BA01A9014150A5
:100480005109610971094F3F51056105710591F0ED
:1004900088F0D501C4012AE0B595A7959795879571
:1004A0002A95D1F7AC01BD0141505109610971098B
:1004B00087E05FCF86E05DCF4F3F51056105710555
:1004C00009F098F684E023CF4F3F5105610571058F
:1004D00041F138F162E17AE780E090E0A70196010E
:1004E0000E948C04BA01A9014150510961097109A6
:1004F0004F3F51056105710591F088F0D501C401A8
:100500003AE0B595A795979587953A95D1F7AC01BF
:10051000BD01415051096109710985E0FACE84E0BD
:10052000F8CE83E0F6CE0E947C008FCEDF91CF9193
:100530001F91FF90EF90DF90CF90BF90AF909F9072
:100540008F9008953FB7F89480910701909108012A
:10055000A0910901B0910A0126B5A89B05C02F3FC3
:1005600019F00196A11DB11D3FBFBA2FA92F982FD9
:100570008827820F911DA11DB11DBC01CD0142E054
:10058000660F771F881F991F4A95D1F708958F929C
:100590009F92AF92BF92CF92DF92EF92FF920E9412
:1005A000A2024B015C0188ECC82ED12CE12CF12C6D
:1005B0000E94A202DC01CB0188199909AA09BB0992
:1005C000883E9340A105B10598F321E0C21AD108F5
:1005D000E108F10888EE880E83E0981EA11CB11C8A
:1005E000C114D104E104F10419F7FF90EF90DF90FA
:1005F000CF90BF90AF909F908F9008959091000101
:10060000891324C0ECE7F0E0E4919FEF90930001A0
:10061000E130B9F098F0E230C9F4909170009D7F1C
:100620009093700091E09093B0009091B100987F0A
:1006300094609093B1001092B30008C010926E00C5
:1006400005C090916F009D7F90936F0090E0FC013A
:10065000E859FF4F2491FC01EB55FF4F3491FC0109
:10066000EF56FF4FE491EE23B9F1222339F1233005
:1006700091F038F42130A9F0223001F584B58F7D56
:1006800012C0273091F02830A1F02430B9F48091C5
:1006900080008F7D03C0809180008F7780938000E1
:1006A0000DC084B58F7784BD09C08091B0008F776D
:1006B00003C08091B0008F7D8093B000F0E0EE0F1A
:1006C000FF1FE358FF4FA591B4919FB7F8948C9109
:1006D000309538233C939FBF08951F920F920FB619
:1006E0000F9211242F933F938F939F93AF93BF93B8
:1006F0008091030190910401A0910501B091060140
:100700003091020123E0230F2D3720F40196A11D23
:10071000B11D05C026E8230F0296A11DB11D20932F
:1007200002018093030190930401A0930501B0930B
:1007300006018091070190910801A0910901B091F3
:100740000A010196A11DB11D809307019093080134
:10075000A0930901B0930A01BF91AF919F918F912E
:100760003F912F910F900FBE0F901F9018951F92E1
:100770000F920FB60F9211242F933F934F935F93D5
:100780006F937F938F939F93AF93BF93EF93FF9359
:100790008091100190911101A0911201B09113016B
:1007A000892B8A2B8B2B51F190910B01E0910C013D
:1007B000F0910D01808189278083809110019091B3
:1007C0001101A0911201B0911301181619061A0611
:1007D0001B06C4F48091100190911101A0911201A7
:1007E000B09113010197A109B10980931001909371
:1007F0001101A0931201B093130104C08091000174
:100800000E94FE02FF91EF91BF91AF919F918F9156
:100810007F916F915F914F913F912F910F900FBEFC
:100820000F901F901895789484B5826084BD84B52C
:10083000816084BD85B5826085BD85B5816085BDDB
:1008400080916E00816080936E0010928100809193
:10085000810082608093810080918100816080931B
:100860008100809180008160809380008091B10040
:1008700084608093B1008091B00081608093B0006B
:1008800080917A00846080937A0080917A008260FF
:1008900080937A0080917A00816080937A008091C1
:1008A0007A00806880937A001092C1000E947C00D8
:1008B000C0E0D0E085E091E00E9498000E94C7026D
:1008C0008AE00E94FE0285E291E00E9498000E9468
:1008D000C7028AE00E94FE0289E491E00E9498002B
:1008E0000E94C7028AE00E94FE028DE591E00E940C
:1008F00098000E94C7028AE00E94FE0288E891E008
:100900000E9498000E94C7028AE00E94FE0220977F
:1009100089F20E940000CECF052E97FB1EF40094B2
:100920000E94A30457FD07D00E94AB0407FC03D02C
:100930004EF40C94A30450954095309521953F4F6B
:100940004F4F5F4F089590958095709561957F4FBB
:100950008F4F9F4F0895A1E21A2EAA1BBB1BFD01CA
:100960000DC0AA1FBB1FEE1FFF1FA217B307E4078E
:10097000F50720F0A21BB30BE40BF50B661F771FE6
:10098000881F991F1A9469F76095709580959095C6
:0E0990009B01AC01BD01CF010895F894FFCF8B
:02099E00FF0058
:00000001FF
