:100000000C945E000C9486000C9486000C94860080
:100010000C9486000C9486000C9486000C940804C2
:100020000C9486000C9486000C9486000C94860038
:100030000C9486000C9486000C9486000C94860028
:100040000C94BE030C9486000C94B0040C948A04A7
:100050000C9486000C9486000C9486000C94860008
:100060000C9486000C948600000000080002010039
:100070000003040700000000000000000200000070
:1000800000250028002B0000000000240027002A83
:100090000004040404040404040202020202020331
:1000A000030303030301020408102040800102043B
:1000B00008102001020408102000490711241FBE67
:1000C000CFEFD8E0DEBFCDBF11E0A0E0B1E0E0E1CE
:1000D000F1E102C005900D92A831B107D9F721E0F6
:1000E000A8E1B1E001C01D92A03DB207E1F710E028
:1000F000CEE5D0E004C02197FE010E947B08CD35FB
:10010000D107C9F70E94E2040C9486080C94000001
:1001100090E0FC01EB55FF4F2491FC01EF56FF4F9F
:100120008491882399F090E0880F991FFC01E9578A
:10013000FF4FA591B491FC01E358FF4F8591949135
:100140008FB7F894EC91E22BEC938FBF0895CF9387
:10015000809100018D3021F08F3F09F0D5C004C09F
:10016000ECE7F0E0C49170C08DE080930001ECE713
:10017000F0E0E491EF3F09F4C7C0E13009F442C078
:1001800040F1E23009F05FC01092B0001092B1006F
:100190008091B00082608093B0008091B100816056
:1001A0008093B100EEE9F0E0E491F0E0EE0FFF1F84
:1001B000E358FF4F859194919093C1018093C001C2
:1001C000E2EBF0E0E491E093BF018DE00E94880053
:1001D0007CC014BC15BC84B5826084BD85B58160CB
:1001E00085BDEEE9F0E0E491F0E0EE0FFF1FE3588B
:1001F000FF4F85919491E2EBF0E0E491E093C3012D
:10020000C0E024C010928000109281008091810093
:10021000886080938100809181008160809381005B
:10022000EEE9F0E0E491F0E0EE0FFF1FE358FF4F3E
:1002300085919491E2EBF0E0E491E093C2018DE0CE
:100240000E9488000DC0CE2FC7FD5EC08DE00E94C9
:100250008800CC2309F441C0C230B9F1C130F1F4B7
:1002600080918100887F8160809381008FE79EE389
:10027000909389008093880084EF91E0A0E0B0E043
:100280008093C8019093C901A093CA01B093CB0198
:1002900080916F00826080936F0036C0C230A1F5FC
:1002A0008FE78093B30084EF91E0A0E0B0E080930B
:1002B000C4019093C501A093C601B093C70180917A
:1002C00070008260809370001FC08091B100887FB1
:1002D00084608093B10089EFE4CF85B5887F836027
:1002E00085BD89EF87BD84EF91E0A0E0B0E0809309
:1002F000CC019093CD01A093CE01B093CF0180911A
:100300006E00826080936E00CF91089590E0FC01B2
:10031000E859FF4F2491FC01EB55FF4F3491FC014C
:10032000EF56FF4FE491EE2309F43CC0222339F14C
:10033000233091F038F42130A9F0223001F584B552
:100340008F7D12C0273091F02830A1F02430B9F40D
:10035000809180008F7D03C0809180008F77809393
:1003600080000DC084B58F7784BD09C08091B00036
:100370008F7703C08091B0008F7D8093B000F0E054
:10038000EE0FFF1FE358FF4FA591B4919FB7F8946C
:10039000611104C08C913095382302C0EC913E2B42
:1003A0003C939FBF08951F93CF93DF93182FEB01CA
:1003B0000E948800209711F460E004C0CF3FD1056F
:1003C00039F461E0812FDF91CF911F910C94860168
:1003D000E12FF0E0E859FF4FE491E330F9F048F401
:1003E000E130B9F0E230A1F584B5806284BDC8BDCA
:1003F00034C0E730E9F0E83019F1E43049F5809194
:100400008000806280938000D0938B00C0938A002C
:1004100024C084B5806884BDC7BD1FC080918000A2
:10042000806880938000D0938900C093880015C0B5
:100430008091B00080688093B000C093B3000DC07D
:100440008091B00080628093B000C093B40005C07A
:10045000C038D1050CF0B5CFAFCFDF91CF911F9150
:1004600008953FB7F8948091BB019091BC01A09191
:10047000BD01B091BE0126B5A89B05C02F3F19F064
:100480000196A11DB11D3FBFBA2FA92F982F882714
:10049000820F911DA11DB11DBC01CD0142E0660F6F
:1004A000771F881F991F4A95D1F708958F929F92C1
:1004B000AF92BF92CF92DF92EF92FF926B017C01DD
:1004C0000E9431024B015C01C114D104E104F1042A
:1004D000F1F00E943102DC01CB0188199909AA09C7
:1004E000BB09883E9340A105B10570F321E0C21A13
:1004F000D108E108F10888EE880E83E0981EA11C5F
:10050000B11CC114D104E104F10419F7DDCFFF904F
:10051000EF90DF90CF90BF90AF909F908F90089515
:10052000CF92DF92EF92FF920F931F93CF93DF93BF
:100530006C017A018B01C0E0D0E0CE15DF0581F0BF
:10054000D8016D918D01D601ED91FC910190F08162
:10055000E02DC6010995892B11F02196EECF7E0181
:10056000C701DF91CF911F910F91FF90EF90DF9026
:10057000CF900895089580E090E00895FC01538D98
:10058000448D252F30E0842F90E0821B930B54176D
:1005900010F0CF96089501970895FC01918D828DFA
:1005A000981761F0828DDF01A80FB11D5D968C91C7
:1005B000928D9F5F9F73928F90E008958FEF9FEFD2
:1005C0000895FC01918D828D981731F0828DE80F8E
:1005D000F11D858D90E008958FEF9FEF0895FC0148
:1005E000918D228D892F90E0805C9F4F821B910915
:1005F0008F739927089588E191E00E94EF0221E02E
:10060000892B09F420E0822F0895FC01848DDF01FD
:10061000A80FB11DA35ABF4F2C91848D90E0019675
:100620008F739927848FA689B7892C93A089B18964
:100630008C91837080648C93938D848D981306C005
:100640000288F389E02D80818F7D80830895EF9269
:10065000FF920F931F93CF93DF93EC0181E0888F7C
:100660009B8D8C8D981305C0E889F989808185FD63
:1006700026C0F62E0B8D10E00F5F1F4F0F73112752
:10068000E02E8C8DE8120CC00FB607FCFACFE8897B
:10069000F989808185FFF5CFCE010E940503F1CF56
:1006A0008B8DFE01E80FF11DE35AFF4FF0829FB7DB
:1006B000F8940B8FEA89FB89808180620AC09FB71A
:1006C000F894EE89FF896083E889F98980818370D5
:1006D000806480839FBF81E090E0DF91CF911F9184
:1006E0000F91FF90EF900895CF93DF93EC01888DE9
:1006F0008823C9F0EA89FB89808185FD05C0A88926
:10070000B9898C9186FD0FC00FB607FCF5CF8081AB
:1007100085FFF2CFA889B9898C9185FFEDCFCE01F5
:100720000E940503E7CFDF91CF91089580E090E02C
:10073000892B29F00E94FB0281110C94000008957E
:1007400061E083E00E94860161E082E00E94860110
:1007500061E086E00E94860161E087E00E948601F8
:1007600061E088E00E94860161E084E00E948601E9
:1007700061E08CE00C9486010E9481081F920F9228
:100780000FB60F9211242F933F938F939F93AF93A4
:10079000BF938091B7019091B801A091B901B09138
:1007A000BA013091B60123E0230F2D3720F40196D2
:1007B000A11DB11D05C026E8230F0296A11DB11D84
:1007C0002093B6018093B7019093B801A093B9012B
:1007D000B093BA018091BB019091BC01A091BD0181
:1007E000B091BE010196A11DB11D8093BB019093F4
:1007F000BC01A093BD01B093BE01BF91AF919F9189
:100800008F913F912F910F900FBE0F901F901895D1
:100810001F920F920FB60F9211242F933F934F9375
:100820005F936F937F938F939F93AF93BF93EF9358
:10083000FF938091C4019091C501A091C601B09130
:10084000C701892B8A2B8B2B59F19091BF01E09125
:10085000C001F091C1018081892780838091C4010A
:100860009091C501A091C601B091C7011816190653
:100870001A061B060CF03DC08091C4019091C50181
:10088000A091C601B091C7010197A109B109809358
:10089000C4019093C501A093C601B093C70129C0BC
:1008A00080910001ECE7F0E0E4919FEF909300016C
:1008B000E130B9F098F0E230C9F4909170009D7F7A
:1008C0009093700091E09093B0009091B100987F68
:1008D00094609093B1001092B30008C010926E0023
:1008E00005C090916F009D7F90936F0060E00E9423
:1008F0008601FF91EF91BF91AF919F918F917F9171
:100900006F915F914F913F912F910F900FBE0F907C
:100910001F9018951F920F920FB60F9211242F93CC
:100920003F934F935F936F937F938F939F93AF9377
:10093000BF93EF93FF9388E191E00E940503FF913D
:10094000EF91BF91AF919F918F917F916F915F9147
:100950004F913F912F910F900FBE0F901F901895C0
:100960001F920F920FB60F9211242F938F939F9384
:10097000EF93FF93E0912801F09129018081E091AC
:100980002E01F0912F0182FD12C0908180913101E2
:100990008F5F8F7320913201821751F0E091310106
:1009A000F0E0E85EFE4F958F8093310101C08081B9
:1009B000FF91EF919F918F912F910F900FBE0F900C
:1009C0001F901895789484B5826084BD84B5816049
:1009D00084BD85B5826085BD85B5816085BD80910A
:1009E0006E00816080936E00109281008091810082
:1009F000826080938100809181008160809381007A
:100A0000809180008160809380008091B10084603B
:100A10008093B1008091B00081608093B00080919C
:100A20007A00846080937A0080917A00826080935B
:100A30007A0080917A00816080937A0080917A00B8
:100A4000806880937A001092C100E0912801F091B3
:100A5000290182E08083E0912401F0912501108238
:100A6000E0912601F09127018FEC808310923001F4
:100A7000E0912C01F0912D0186E08083E0912A0124
:100A8000F0912B01808180618083E0912A01F091B7
:100A90002B01808188608083E0912A01F0912B01F5
:100AA000808180688083E0912A01F0912B01808110
:100AB0008F7D808383E00E94880082E00E9488000E
:100AC00086E00E94880087E00E94880088E00E94FB
:100AD000880084E00E9488008CE00E94880085E005
:100AE0000E9488008BE00E9488008AE00E948800B3
:100AF00089E00E9488008DE00E94880088E7C82E67
:100B0000D12CE12CF12C94EF892E99249394A12CD3
:100B1000B12C0E94A00360E08BE00E94860160E09F
:100B20008AE00E94860160E089E00E948601C4E0BC
:100B3000D0E01091B501112311F060E001C061E037
:100B400085E00E94860181E081278093B50168EEEF
:100B500073E080E090E00E945602219751F760E038
:100B600083E00E94860160E082E00E94860160E0EE
:100B700086E00E94860160E087E00E94860161E0D5
:100B800088E00E94860160E084E00E94860160E0C7
:100B90008CE00E9486010E94A70068EE73E080E06E
:100BA00090E00E94560260E083E00E94860160E0CF
:100BB00082E00E94860160E086E00E94860160E09B
:100BC00087E00E94860160E088E00E94860160E084
:100BD00084E00E94860160E08CE00E9486010E9411
:100BE000A70068EE73E080E090E00E94560260E0AB
:100BF00083E00E94860160E082E00E94860160E05E
:100C000086E00E94860161E087E00E94860161E043
:100C100088E00E94860161E084E00E94860161E034
:100C20008CE00E9486010E94A70068EE73E080E0DD
:100C300090E00E94560261E083E00E94860161E03C
:100C400082E00E94860160E086E00E94860160E00A
:100C500087E00E94860160E088E00E94860160E0F3
:100C600084E00E94860160E08CE00E9486010E9480
:100C7000A70068EE73E080E090E00E94560260E01A
:100C800083E00E94860161E082E00E94860160E0CC
:100C900086E00E94860160E087E00E94860161E0B4
:100CA00088E00E94860160E084E00E94860160E0A6
:100CB0008CE00E9486010E94A70068EE73E080E04D
:100CC00090E00E94560261E083E00E94860160E0AD
:100CD00082E00E94860160E086E00E94860161E079
:100CE00087E00E94860161E088E00E94860160E062
:100CF00084E00E94860160E08CE00E9486010E94F0
:100D0000A70068EE73E080E090E00E94560260E089
:100D100083E00E94860160E082E00E94860160E03C
:100D200086E00E94860160E087E00E94860161E023
:100D300088E00E94860161E084E00E94860160E014
:100D40008CE00E9486010E94A70068EE73E080E0BC
:100D500090E00E94560260E083E00E94860160E01D
:100D600082E00E94860161E086E00E94860160E0E8
:100D700087E00E94860160E088E00E94860161E0D1
:100D800084E00E94860160E08CE00E9486010E945F
:100D9000A70068EE73E080E090E00E94560261E0F8
:100DA00083E00E94860160E082E00E94860160E0AC
:100DB00086E00E94860161E087E00E94860161E092
:100DC00088E00E94860161E084E00E94860161E083
:100DD0008CE00E9486010E94A70068EE73E080E02C
:100DE00090E00E94560260E083E00E94860160E08D
:100DF00082E00E94860160E086E00E94860160E059
:100E000087E00E94860160E088E00E94860160E041
:100E100084E00E94860161E08CE00E9486010E94CD
:100E2000A70068EE73E080E090E00E9456020E9406
:100E3000A003C1E1D7E20E94C107A70196010E9469
:100E4000180869577F4F8BE00E94D3010E94C107A9
:100E5000A70196010E94180869577F4F8AE00E94F7
:100E6000D3010E94C107A70196010E941808695783
:100E70007F4F89E00E94D3010E94C107A501940120
:100E80000E9418080E9456022197A9F60E94960314
:100E900040CEE8E1F1E01382128288EE93E0A0E018
:100EA000B0E084839583A683B78389E091E0918342
:100EB000808385EC90E09587848784EC90E0978729
:100EC000868780EC90E0918B808B81EC90E0938B17
:100ED000828B82EC90E0958B848B86EC90E0978BF4
:100EE000868B118E128E138E148E08958F929F9280
:100EF000AF92BF92CF92DF92EF92FF92CF93DF93A8
:100F0000EC01688179818A819B8161157105810578
:100F1000910521F464E279ED8BE597E02DE133EF63
:100F200041E050E00E94180849015A019B01AC01C0
:100F3000A7EAB1E40E9437086B017C01ACEEB4EF84
:100F4000A50194010E944508DC01CB018C0D9D1D7B
:100F5000AE1DBF1DB7FF03C00197A109B04888832C
:100F60009983AA83BB83BC01CD019F77DF91CF9189
:100F7000FF90EF90DF90CF90BF90AF909F908F90B9
:100F800008958F929F92AF92BF92CF92DF92EF928D
:100F9000FF92609101017091020180910301909193
:100FA0000401611571058105910521F464E279ED73
:100FB0008BE597E02DE133EF41E050E00E94180807
:100FC00049015A019B01AC01A7EAB1E40E9437082C
:100FD0006B017C01ACEEB4EFA50194010E944508C1
:100FE000DC01CB018C0D9D1DAE1DBF1DB7FF03C0E5
:100FF0000197A109B0488093010190930201A09349
:101000000301B0930401BC01CD019F77FF90EF90E5
:10101000DF90CF90BF90AF909F908F900895609396
:1010200001017093020180930301909304010895DC
:10103000052E97FB1EF400940E942F0857FD07D041
:101040000E944A0807FC03D04EF40C942F085095D8
:101050004095309521953F4F4F4F5F4F08959095A4
:101060008095709561957F4F8F4F9F4F08950E9497
:101070006C08A59F900DB49F900DA49F800D911DAD
:1010800011240895B7FF0C9437080E943708821B7B
:10109000930B0895A1E21A2EAA1BBB1BFD010DC0E4
:1010A000AA1FBB1FEE1FFF1FA217B307E407F50718
:1010B00020F0A21BB30BE40BF50B661F771F881FF4
:1010C000991F1A9469F760957095809590959B018A
:1010D000AC01BD01CF010895A29FB001B39FC00133
:1010E000A39F700D811D1124911DB29F700D811D54
:1010F0001124911D0895EE0FFF1F0590F491E02D2E
:10110000099481E090E0F8940C948608F894FFCF5D
:10111000FF010000000000000027039002BE0274DF
:0811200003EF02CD02E1020021
:00000001FF
