:100000000C9462000C948A000C948A000C948A0070
:100010000C948A000C948A000C948A000C948A0038
:100020000C948A000C948A000C948A000C948A0028
:100030000C948A000C948A000C948A000C948A0018
:100040000C9467040C948A000C94D7040C94B104AB
:100050000C948A000C948A000C948A000C948A00F8
:100060000C948A000C948A000000000024002700F1
:100070002A0000000000250028002B0000000000DE
:1000800023002600290004040404040404040202DA
:100090000202020203030303030301020408102007
:1000A0004080010204081020010204081020000012
:1000B0000008000201000003040700000000000027
:1000C0000000390A11241FBECFEFD8E0DEBFCDBF3C
:1000D00011E0A0E0B1E0E6EEF4E102C005900D927F
:1000E000A231B107D9F721E0A2E1B1E001C01D9230
:1000F000A83BB207E1F710E0C2E6D0E004C02197C8
:10010000FE010E94660AC136D107C9F70E9409059F
:100110000C94710A0C940000833081F028F4813033
:1001200099F08230A1F008958730A9F08830B9F0B5
:100130008430D1F4809180008F7D03C08091800055
:100140008F7780938000089584B58F7702C084B53F
:100150008F7D84BD08958091B0008F7703C080911A
:10016000B0008F7D8093B0000895CF93DF93282F48
:1001700030E0F901E255FF4F8491F901E656FF4F57
:10018000D491F901EA57FF4FC491CC2391F081112A
:100190000E948C00EC2FF0E0EE0FFF1FE458FF4FA1
:1001A000A591B491EC91ED2381E090E021F480E001
:1001B00002C080E090E0DF91CF9108951F93CF932C
:1001C000DF93282F30E0F901E255FF4F8491F901C8
:1001D000E656FF4FD491F901EA57FF4FC491CC2363
:1001E000C1F0162F81110E948C00EC2FF0E0EE0F71
:1001F000FF1FEE58FF4FA591B4919FB7F8941111CE
:1002000004C08C91D095D82302C0EC91DE2BDC93F6
:100210009FBFDF91CF911F910895CF93DF9390E01F
:10022000FC01E656FF4F2491FC01EA57FF4F8491F1
:10023000882361F190E0880F991FFC01E859FF4F76
:10024000C591D491FC01EE58FF4FA591B491611175
:1002500009C09FB7F8948881209582238883EC9108
:100260002E230BC0623061F49FB7F8948881322F3F
:10027000309583238883EC912E2B2C939FBF06C04F
:100280008FB7F894E8812E2B28838FBFDF91CF9111
:1002900008951F93CF93DF93182FEB0161E00E9425
:1002A0000D01209711F460E004C0CF3FD10539F46F
:1002B00061E0812FDF91CF911F910C94DE00E12F3F
:1002C000F0E0E255FF4FE491E330F9F048F4E1301B
:1002D000B9F0E230A1F584B5806284BDC8BD34C0F8
:1002E000E730E9F0E83019F1E43049F58091800019
:1002F000806280938000D0938B00C0938A0024C0DA
:1003000084B5806884BDC7BD1FC0809180008068AF
:1003100080938000D0938900C093880015C080919D
:10032000B00080688093B000C093B3000DC080918E
:10033000B00080628093B000C093B40005C0C038A4
:10034000D1050CF0B5CFAFCFDF91CF911F910895BC
:100350003FB7F8948091B4019091B501A091B60196
:10036000B091B70126B5A89B05C02F3F19F00196A3
:10037000A11DB11D3FBFBA2FA92F982F8827820F2B
:10038000911DA11DB11DBC01CD0142E0660F771F7B
:10039000881F991F4A95D1F708958F929F92AF9227
:1003A000BF92CF92DF92EF92FF926B017C010E948D
:1003B000A8014B015C01C114D104E104F104F1F086
:1003C0000E94A801DC01CB0188199909AA09BB097F
:1003D000883E9340A105B10570F321E0C21AD1080F
:1003E000E108F10888EE880E83E0981EA11CB11C7C
:1003F000C114D104E104F10419F7DDCFFF90EF90AF
:10040000DF90CF90BF90AF909F908F900895CF9244
:10041000DF92EF92FF920F931F93CF93DF936C01C4
:100420007A018B01C0E0D0E0CE15DF0581F0D80164
:100430006D918D01D601ED91FC910190F081E02D3F
:10044000C6010995892B11F02196EECF7E01C701D7
:10045000DF91CF911F910F91FF90EF90DF90CF90A0
:100460000895089580E090E00895FC01538D448D37
:10047000252F30E0842F90E0821B930B541710F04F
:10048000CF96089501970895FC01918D828D98175C
:1004900061F0828DDF01A80FB11D5D968C91928D68
:1004A0009F5F9F73928F90E008958FEF9FEF089565
:1004B000FC01918D828D981731F0828DE80FF11D2E
:1004C000858D90E008958FEF9FEF0895FC01918D49
:1004D000228D892F90E0805C9F4F821B91098F7342
:1004E0009927089582E191E00E94660221E0892B1C
:1004F00009F420E0822F0895FC01848DDF01A80F0C
:10050000B11DA35ABF4F2C91848D90E001968F733B
:100510009927848FA689B7892C93A089B1898C915A
:10052000837080648C93938D848D981306C00288A9
:10053000F389E02D80818F7D80830895EF92FF9273
:100540000F931F93CF93DF93EC0181E0888F9B8DF6
:100550008C8D981305C0E889F989808185FD26C0B6
:10056000F62E0B8D10E00F5F1F4F0F731127E02E3B
:100570008C8DE8120CC00FB607FCFACFE889F98918
:10058000808185FFF5CFCE010E947C02F1CF8B8D5B
:10059000FE01E80FF11DE35AFF4FF0829FB7F89478
:1005A0000B8FEA89FB89808180620AC09FB7F8942B
:1005B000EE89FF896083E889F9898081837080648E
:1005C00080839FBF81E090E0DF91CF911F910F91D9
:1005D000FF90EF900895CF93DF93EC01888D8823EF
:1005E000C9F0EA89FB89808185FD05C0A889B989A0
:1005F0008C9186FD0FC00FB607FCF5CF808185FF7B
:10060000F2CFA889B9898C9185FFEDCFCE010E94E8
:100610007C02E7CFDF91CF91089580E090E0892BB5
:1006200029F00E94720281110C940000089560E08C
:100630008DE00E94DE0060E082E00E94DE0060E06B
:1006400083E00E94DE0060E084E00E94DE0060E063
:1006500088E00E94DE0060E087E00E94DE0060E04B
:100660008AE00E94DE0060E08BE00C94DE0061E036
:100670008DE00E94DE0061E088E00E94DE0062E31F
:1006800070E080E090E00E94CD010E94170361E0DD
:1006900082E00E94DE0061E087E00E94DE0062E30B
:1006A00070E080E090E00E94CD010E94170361E0BD
:1006B00083E00E94DE0061E08AE00E94DE0062E3E7
:1006C00070E080E090E00E94CD010E94170361E09D
:1006D00084E00E94DE0061E08BE00E94DE0062E3C5
:1006E00070E080E090E00E94CD010E94170361E07D
:1006F00084E00E94DE0061E08BE00E94DE0062E3A5
:1007000070E080E090E00E94CD010E94170361E05C
:1007100083E00E94DE0061E08AE00E94DE0062E386
:1007200070E080E090E00E94CD010E94170361E03C
:1007300082E00E94DE0061E087E00E94DE0062E36A
:1007400070E080E090E00E94CD010E94170361E01C
:100750008DE00E94DE0061E088E00E94DE0062E33E
:1007600070E080E090E00E94CD010C9417030F939D
:100770001F93CF93DF938B01EA01BC0189E00E94B4
:100780004901B80186E00E944901BE0185E0DF9180
:10079000CF911F910F910C94490140E050E06FEF11
:1007A00070E08FEF90E00C94B7034FEF50E060E003
:1007B00070E08FEF90E00C94B7034FEF50E06FEFD5
:1007C00070E080E090E00C94B7034DE750E06FEFED
:1007D00070E08FEF90E00C94B7034FEF50E060E0D3
:1007E00070E080E090E00C94B70340E050E060E0FF
:1007F00070E08FEF90E00C94B70340E050E06FEFB3
:1008000070E080E090E00C94B7034FEF50E06FEFA2
:1008100070E08FEF90E00C94B70340E050E060E0B0
:1008200070E080E090E00C94B7030E94050462E35E
:1008300070E080E090E00E94CD010E940D040E94D3
:10084000FD0362E370E080E090E00E94CD010E9431
:100850000D040E94F50362E370E080E090E00E94E6
:10086000CD010E940D040E94ED0362E370E080E080
:1008700090E00E94CD010E940D040E94E50362E316
:1008800070E080E090E00E94CD010E940D040E9483
:10089000DD0362E370E080E090E00E94CD010E9401
:1008A0000D040E94D50362E370E080E090E00E94B6
:1008B000CD010E940D040E94CD0362E370E080E050
:1008C00090E00E94CD010C940D040E946C0A1F92CE
:1008D0000F920FB60F9211242F933F938F939F93F4
:1008E000AF93BF938091B0019091B101A091B201FB
:1008F000B091B3013091AF0123E0230F2D3720F4E5
:100900000196A11DB11D05C026E8230F0296A11D69
:10091000B11D2093AF018093B0019093B101A093DA
:10092000B201B093B3018091B4019091B501A0914F
:10093000B601B091B7010196A11DB11D8093B4011C
:100940009093B501A093B601B093B701BF91AF9159
:100950009F918F913F912F910F900FBE0F901F90FD
:1009600018951F920F920FB60F9211242F933F9359
:100970004F935F936F937F938F939F93AF93BF93A7
:10098000EF93FF9382E191E00E947C02FF91EF914F
:10099000BF91AF919F918F917F916F915F914F9197
:1009A0003F912F910F900FBE0F901F9018951F929F
:1009B0000F920FB60F9211242F938F939F93EF9363
:1009C000FF93E0912201F09123018081E0912801C1
:1009D000F091290182FD12C0908180912B018F5FDF
:1009E0008F7320912C01821751F0E0912B01F0E0E0
:1009F000EE5EFE4F958F80932B0101C08081FF91A9
:100A0000EF919F918F912F910F900FBE0F901F909C
:100A10001895789484B5826084BD84B5816084BD66
:100A200085B5826085BD85B5816085BD80916E008C
:100A3000816080936E0010928100809181008260BD
:100A400080938100809181008160809381008091FA
:100A500080008160809380008091B10084608093E9
:100A6000B1008091B00081608093B00080917A00E5
:100A7000846080937A0080917A00826080937A000B
:100A800080917A00816080937A0080917A008068FA
:100A900080937A001092C100E0912201F09123012D
:100AA00082E08083E0911E01F0911F011082E091AD
:100AB0002001F09121018FEC808310922A01E091B6
:100AC0002601F091270186E08083E0912401F091D6
:100AD0002501808180618083E0912401F0912501CE
:100AE000808188608083E0912401F09125018081DC
:100AF00080688083E0912401F091250180818F7DC1
:100B0000808361E08DE00E940D0161E082E00E943F
:100B10000D0161E083E00E940D0161E084E00E942C
:100B20000D0161E085E00E940D0161E086E00E9418
:100B30000D0161E089E00E940D0161E088E00E9402
:100B40000D0161E087E00E940D0161E08AE00E94F2
:100B50000D0161E08BE00E940D0162E08CE00E94DB
:100B60000D018CE00E94B500892B39F080E00E94D5
:100B7000B500892B09F455C279C4C4E6D0E00AE077
:100B800010E00E9417030E940D040E94050461E01A
:100B90008DE00E94DE0061E083E00E94DE0061E003
:100BA00087E00E94DE0064EF71E080E090E00E9448
:100BB000CD010E9417030E940D040E94FD0361E015
:100BC00088E00E94DE0061E082E00E94DE0061E0D9
:100BD0008BE00E94DE0064EF71E080E090E00E9414
:100BE000CD010E9417030E940D040E94F50361E0ED
:100BF0008DE00E94DE0061E083E00E94DE0061E0A3
:100C00008AE00E94DE0064EF71E080E090E00E94E4
:100C1000CD010E9417030E940D040E94ED0361E0C4
:100C200088E00E94DE0061E083E00E94DE0061E077
:100C300084E00E94DE0064EF71E080E090E00E94BA
:100C4000CD010E9417030E940D040E94E50361E09C
:100C50008DE00E94DE0061E087E00E94DE0061E03E
:100C60008BE00E94DE0064EF71E080E090E00E9483
:100C7000CD010E9417030E940D040E94DD0361E074
:100C80008DE00E94DE0061E083E00E94DE0061E012
:100C900088E00E94DE0064EF71E080E090E00E9456
:100CA000CD010E9417030E940D040E94D50361E04C
:100CB0008AE00E94DE0061E082E00E94DE0061E0E6
:100CC0008BE00E94DE0064EF71E080E090E00E9423
:100CD000CD010E9417030E940D040E94CD0361E024
:100CE00084E00E94DE0061E087E00E94DE0061E0B7
:100CF00082E00E94DE0064EF71E080E090E00E94FC
:100D0000CD010E9417030E940D040E94050461E0BA
:100D10008AE00E94DE0061E082E00E94DE0061E085
:100D200083E00E94DE0064EF71E080E090E00E94CA
:100D3000CD010E9417030E940D040E94FD0361E093
:100D40008DE00E94DE0061E088E00E94DE0061E04C
:100D500087E00E94DE0064EF71E080E090E00E9496
:100D6000CD010E9417030E940D040E94F50361E06B
:100D700082E00E94DE0061E088E00E94DE0061E027
:100D80008BE00E94DE0064EF71E080E090E00E9462
:100D9000CD010E9417030E940D040E94ED0361E043
:100DA00083E00E94DE0061E08DE00E94DE0061E0F1
:100DB0008AE00E94DE0064EF71E080E090E00E9433
:100DC000CD010E9417030E940D040E94E50361E01B
:100DD00087E00E94DE0061E083E00E94DE0061E0C7
:100DE00082E00E94DE0064EF71E080E090E00E940B
:100DF000CD010E9417030E940D040E94DD0361E0F3
:100E000082E00E94DE0061E088E00E94DE0061E096
:100E10008BE00E94DE0064EF71E080E090E00E94D1
:100E2000CD010E9417030E940D040E94D50361E0CA
:100E300083E00E94DE0061E08DE00E94DE0061E060
:100E40008AE00E94DE0064EF71E080E090E00E94A2
:100E5000CD010E9417030E940D040E94CD0361E0A2
:100E600082E00E94DE0061E087E00E94DE0061E037
:100E70008DE00E94DE0064EF71E080E090E00E946F
:100E8000CD010E9417030E940D040E94050461E039
:100E900082E00E94DE0061E084E00E94DE0061E00A
:100EA0008AE00E94DE0064EF71E080E090E00E9442
:100EB000CD010E9417030E940D040E94FD0361E012
:100EC0008DE00E94DE0061E083E00E94DE0061E0D0
:100ED00088E00E94DE0064EF71E080E090E00E9414
:100EE000CD010E9417030E940D040E94F50361E0EA
:100EF00082E00E94DE0061E08DE00E94DE0061E0A1
:100F00008BE00E94DE0064EF71E080E090E00E94E0
:100F1000CD010E9417030E940D040E94ED0361E0C1
:100F20008DE00E94DE0061E087E00E94DE0061E06B
:100F30008BE00E94DE0064EF71E080E090E00E94B0
:100F4000CD010E9417030E940D040E94E50361E099
:100F500084E00E94DE0061E083E00E94DE0061E048
:100F600088E00E94DE0064EF71E080E090E00E9483
:100F7000CD010E9417030E940D040E94DD0361E071
:100F80008BE00E94DE0061E08DE00E94DE0061E007
:100F900082E00E94DE0064EF71E080E090E00E9459
:100FA000CD010E9417030E940D040E94D50361E049
:100FB00087E00E94DE0061E083E00E94DE0061E0E5
:100FC0008AE00E94DE0064EF71E080E090E00E9421
:100FD000CD010E9417030E940D040E94CD0361E021
:100FE00084E00E94DE0061E087E00E94DE0061E0B4
:100FF00082E00E94DE0064EF71E080E090E00E94F9
:10100000CD010E9417030E940D040E9417030E9445
:101010000D040150110909F0B4CD219709F0AFCDAD
:10102000A5CDC4E6D0E006E010E061E08DE00E94CE
:10103000DE000E94FD0362E370E080E090E00E9429
:10104000CD010E9417030E940D0461E082E00E941E
:10105000DE000E94F50362E370E080E090E00E9411
:10106000CD010E9417030E940D0461E083E00E94FD
:10107000DE000E94ED0362E370E080E090E00E94F9
:10108000CD010E9417030E940D0461E084E00E94DC
:10109000DE000E94E50362E370E080E090E00E94E1
:1010A000CD010E9417030E940D0461E088E00E94B8
:1010B000DE000E94050462E370E080E090E00E94A0
:1010C000CD010E9417030E940D0461E087E00E9499
:1010D000DE000E94DD0362E370E080E090E00E94A9
:1010E000CD010E9417030E940D0461E08AE00E9476
:1010F000DE000E94D50362E370E080E090E00E9491
:10110000CD010E9417030E940D0461E08BE00E9454
:10111000DE000E94CD0362E370E080E090E00E9478
:10112000CD010E9417030E940D040150110909F01E
:101130007CCF04E010E00E9415040E9437030E9457
:1011400017030E940D0401501109A9F704E010E0F3
:101150000E9417030E94050461E084E00E94DE0003
:1011600061E08BE00E94DE006AEF70E080E090E0DA
:101170000E94CD010E9417030E94F50361E082E006
:101180000E94DE0061E087E00E94DE006AEF70E00E
:1011900080E090E00E94CD010E9417030E94FD03B1
:1011A00061E08DE00E94DE0061E083E00E94DE00ED
:1011B00061E088E00E94DE0061E08AE00E94DE00DB
:1011C0006AEF70E080E090E00E94CD010E9417037A
:1011D0000E9417030E940D040150110909F0B8CFB5
:1011E00004E010E061E08DE00E94DE0062E370E068
:1011F00080E090E00E94CD010E94170361E082E050
:101200000E94DE0062E370E080E090E00E94CD0189
:101210000E94170361E083E00E94DE0062E370E059
:1012200080E090E00E94CD010E94170361E084E01D
:101230000E94DE0062E370E080E090E00E94CD0159
:101240000E94170361E08BE00E94DE0062E370E021
:1012500080E090E00E94CD010E94170361E08AE0E7
:101260000E94DE0062E370E080E090E00E94CD0129
:101270000E94170361E087E00E94DE0062E370E0F5
:1012800080E090E00E94CD010E94170361E088E0B9
:101290000E94DE0062E370E080E090E00E94CD01F9
:1012A0000E94170361E088E00E94DE0062E370E0C4
:1012B00080E090E00E94CD010E94170361E087E08A
:1012C0000E94DE0062E370E080E090E00E94CD01C9
:1012D0000E94170361E08AE00E94DE0062E370E092
:1012E00080E090E00E94CD010E94170361E08BE056
:1012F0000E94DE0062E370E080E090E00E94CD0199
:101300000E94170361E084E00E94DE0062E370E067
:1013100080E090E00E94CD010E94170361E083E02D
:101320000E94DE0062E370E080E090E00E94CD0168
:101330000E94170361E082E00E94DE0062E370E039
:1013400080E090E00E94CD010E94170361E08DE0F3
:101350000E94DE0062E370E080E090E00E94CD0138
:101360000E9417030E9415040E9417030E940D0497
:101370000150110909F036CF06E010E00E94370352
:101380000E9417030E940D0401501109B9F704E0EF
:1013900010E00E94150461E08DE00E94DE0061E033
:1013A00082E00E94DE0061E083E00E94DE0061E0F6
:1013B00084E00E94DE0068E770E080E090E00E9438
:1013C000CD010E94170361E088E00E94DE0061E029
:1013D00087E00E94DE0061E08AE00E94DE0061E0BA
:1013E0008BE00E94DE0068E770E080E090E00E9401
:1013F000CD010E94170361E08DE00E94DE0061E0F4
:1014000087E00E94DE0061E083E00E94DE0061E090
:101410008BE00E94DE0068E770E080E090E00E94D0
:10142000CD010E94170361E082E00E94DE0061E0CE
:1014300084E00E94DE0061E088E00E94DE0061E05E
:101440008AE00E94DE0068E770E080E090E00E94A1
:10145000CD010E9417030E9417030E940D04015042
:10146000110909F096CF219709F0DDCD0E940D03F7
:1014700078CBE2E1F1E01382128288EE93E0A0E003
:10148000B0E084839583A683B78384E091E0918361
:10149000808385EC90E09587848784EC90E0978743
:1014A000868780EC90E0918B808B81EC90E0938B31
:1014B000828B82EC90E0958B848B86EC90E0978B0E
:1014C000868B118E128E138E148E0895EE0FFF1FD1
:1014D0000590F491E02D099481E090E0F8940C944B
:0614E000710AF894FFCF31
:1014E600000000009E0207023502EB02660244027B
:0214F60058029A
:00000001FF
