:100000000C9462000C948A000C948A000C948A0070
:100010000C948A000C948A000C948A000C948A0038
:100020000C948A000C948A000C948A000C940804A6
:100030000C948A000C948A000C948A000C948A0018
:100040000C9466030C948A000C94D6030C94B003B1
:100050000C948A000C948A000C948A000C948A00F8
:100060000C948A000C948A000000000024002700F1
:100070002A0000000000250028002B0000000000DE
:1000800023002600290004040404040404040202DA
:100090000202020203030303030301020408102007
:1000A0004080010204081020010204081020000012
:1000B0000008000201000003040700000000000027
:1000C0000000C90411241FBECFEFD8E0DEBFCDBFB2
:1000D00011E0A0E0B1E0EEE9FEE002C005900D9273
:1000E000A432B107D9F722E0A4E2B1E001C01D9229
:1000F000A230B207E1F710E0C2E6D0E004C02197D9
:10010000FE010E944207C136D107C9F70E9444058B
:100110000C944D070C940000CF92DF92EF92FF9267
:10012000DC01A03282E0B8070CF03EC0B7FD06C08B
:10013000A53BB1052CF0A4EBB0E002C0A0E0B0E01C
:100140008091F50128E830E06901C81AD10887FDDF
:10015000D394CC0CDD1CCC0CDD1C0D2C000CEE085B
:10016000FF088091F60128E532E0281B310987FD60
:100170003395220F331F220F331FA901330F660B54
:10018000770B9A01AB012C193D094E095F090E94BA
:10019000E90624EB30E040E050E00E94BF06C20ECA
:1001A000D31EE41EF51ED6019091F4019C3098F503
:1001B0008091F50148E850E0481B510987FD5395AF
:1001C000440F551F440F551FA417B5078CF080919D
:1001D000F60128E532E0281B310987FD3395220F0F
:1001E000331F220F331FAD012A173B070CF4A9015F
:1001F00042505109440F551F2FB7F894892F90E0B2
:10020000FC01EE0FFF1F8E0F9F1FFC01E153FE4FFD
:10021000528341832FBFFF90EF90DF90CF900895DE
:10022000E2E3F1E0A089B18982E08C93A485B585F1
:100230001C92A685B7858FEC8C93108EA489B58906
:1002400086E08C93A289B3898C9180618C93A2897A
:10025000B3898C9188608C93A289B3898C918068D2
:100260008C930288F389E02D80818F7D80830895AF
:10027000833081F028F4813099F08230A1F0089524
:100280008730A9F08830B9F08430D1F480918000B3
:100290008F7D03C0809180008F77809380000895C8
:1002A00084B58F7702C084B58F7D84BD0895809119
:1002B000B0008F7703C08091B0008F7D8093B00035
:1002C0000895CF93DF93282F30E0F901E255FF4FD7
:1002D0008491F901E656FF4FD491F901EA57FF4F97
:1002E000C491CC2391F081110E943801EC2FF0E0F1
:1002F000EE0FFF1FE458FF4FA591B491EC91ED2351
:1003000081E090E021F480E002C080E090E0DF91A5
:10031000CF9108951F93CF93DF93282F30E0F901F9
:10032000E255FF4F8491F901E656FF4FD491F90150
:10033000EA57FF4FC491CC23C1F0162F81110E94C0
:100340003801EC2FF0E0EE0FFF1FEE58FF4FA591A4
:10035000B4919FB7F894111104C08C91D095D82313
:1003600002C0EC91DE2BDC939FBFDF91CF911F91F8
:100370000895CF93DF9390E0FC01E656FF4F249160
:10038000FC01EA57FF4F8491882361F190E0880FC8
:10039000991FFC01E859FF4FC591D491FC01EE581B
:1003A000FF4FA591B491611109C09FB7F89488815E
:1003B000209582238883EC912E230BC0623061F458
:1003C0009FB7F8948881322F309583238883EC91EE
:1003D0002E2B2C939FBF06C08FB7F894E8812E2B4D
:1003E00028838FBFDF91CF9108953FB7F894809114
:1003F0002E0190912F01A0913001B091310126B5CD
:10040000A89B05C02F3F19F00196A11DB11D3FBF4C
:10041000BA2FA92F982F8827820F911DA11DB11DDA
:10042000BC01CD0142E0660F771F881F991F4A95D6
:10043000D1F708958F929F92AF92BF92CF92DF92A1
:10044000EF92FF926B017C010E94F5014B015C0170
:10045000C114D104E104F104F1F00E94F501DC01C2
:10046000CB0188199909AA09BB09883E9340A105C7
:10047000B10570F321E0C21AD108E108F10888EE55
:10048000880E83E0981EA11CB11CC114D104E104A4
:10049000F10419F7DDCFFF90EF90DF90CF90BF9080
:1004A000AF909F908F900895CF92DF92EF92FF923E
:1004B0000F931F93CF93DF936C017A018B01C0E000
:1004C000D0E0CE15DF0581F0D8016D918D01D60108
:1004D000ED91FC910190F081E02DC6010995892BE9
:1004E00011F02196EECF7E01C701DF91CF911F91D0
:1004F0000F91FF90EF90DF90CF900895089580E0E6
:1005000090E00895FC01538D448D252F30E0842F19
:1005100090E0821B930B541710F0CF96089501972B
:100520000895FC01918D828D981761F0828DDF0115
:10053000A80FB11D5D968C91928D9F5F9F73928FD6
:1005400090E008958FEF9FEF0895FC01918D828DCB
:10055000981731F0828DE80FF11D858D90E0089598
:100560008FEF9FEF0895FC01918D228D892F90E0F0
:10057000805C9F4F821B91098F739927089582E3B6
:1005800091E00E94B30221E0892B09F420E0822F40
:100590000895FC01848DDF01A80FB11DA35ABF4F40
:1005A0002C91848D90E001968F739927848FA68972
:1005B000B7892C93A089B1898C91837080648C93C6
:1005C000938D848D981306C00288F389E02D808175
:1005D0008F7D80830895EF92FF920F931F93CF93A7
:1005E000DF93EC0181E0888F9B8D8C8D981305C083
:1005F000E889F989808185FD26C0F62E0B8D10E0F3
:100600000F5F1F4F0F731127E02E8C8DE8120CC067
:100610000FB607FCFACFE889F989808185FFF5CF0D
:10062000CE010E94C902F1CF8B8DFE01E80FF11DB2
:10063000E35AFF4FF0829FB7F8940B8FEA89FB894A
:10064000808180620AC09FB7F894EE89FF89608339
:10065000E889F98980818370806480839FBF81E00D
:1006600090E0DF91CF911F910F91FF90EF9008954F
:10067000CF93DF93EC01888D8823C9F0EA89FB8949
:10068000808185FD05C0A889B9898C9186FD0FC040
:100690000FB607FCF5CF808185FFF2CFA889B98915
:1006A0008C9185FFEDCFCE010E94C902E7CFDF918B
:1006B000CF91089580E090E0892B29F00E94BF023D
:1006C00081110C94000008950E9448071F920F9218
:1006D0000FB60F9211242F933F938F939F93AF9355
:1006E000BF9380912A0190912B01A0912C01B09190
:1006F0002D013091290123E0230F2D3720F401969D
:10070000A11DB11D05C026E8230F0296A11DB11D34
:100710002093290180932A0190932B01A0932C010F
:10072000B0932D0180912E0190912F01A091300165
:10073000B09131010196A11DB11D80932E019093BE
:100740002F01A0933001B0933101BF91AF919F91E0
:100750008F913F912F910F900FBE0F901F90189582
:100760001F920F920FB60F9211242F933F934F9326
:100770005F936F937F938F939F93AF93BF93EF9309
:10078000FF9382E391E00E94C902FF91EF91BF9134
:10079000AF919F918F917F916F915F914F913F9119
:1007A0002F910F900FBE0F901F9018951F920F92D0
:1007B0000FB60F9211242F938F939F93EF93FF9374
:1007C000E0914201F09143018081E0914801F09174
:1007D000490182FD12C0908180914B018F5F8F7320
:1007E00020914C01821751F0E0914B01F0E0EE5C5A
:1007F000FE4F958F80934B0101C08081FF91EF9157
:100800009F918F912F910F900FBE0F901F90189571
:100810001F920F920FB60F9211242F933F934F9375
:100820005F936F937F938F939F93AF93BF93EF9358
:10083000FF938091240187FF05C0109285001092DC
:1008400084001BC020912401022E000C330B8091E8
:10085000F30190E02817390784F480912401082ED1
:10086000000C990BFC01EE0FFF1F8E0F9F1FFC0168
:10087000E153FE4F808186FD15C0809124018F5F7A
:100880008093240120912401022E000C330B8091CF
:10089000F30190E028173907C4F4809124018C30CB
:1008A00064F113C080912401082E000C990BFC0107
:1008B000EE0FFF1F8E0F9F1FFC01E153FE4F808143
:1008C00060E08F730E948A01D8CF8091840090915C
:1008D0008500049680349C4918F480E49CE905C0A6
:1008E0008091840090918500049690938900809374
:1008F00088008FEF809324013BC0209184003091C9
:10090000850080912401082E000C990BFC01EE0F4C
:10091000FF1F8E0F9F1FFC01E153FE4F81819281CB
:10092000820F931F90938900809388008091240107
:10093000082E000C990BFC01EE0FFF1F8E0F9F1F5E
:10094000FC01E153FE4F808186FF12C0809124019B
:10095000082E000C990BFC01EE0FFF1F8E0F9F1F3E
:10096000FC01E153FE4F808161E08F730E948A0198
:10097000FF91EF91BF91AF919F918F917F916F9177
:100980005F914F913F912F910F900FBE0F901F904D
:100990001895109235011092340188EE93E0A0E092
:1009A000B0E08093360190933701A0933801B09363
:1009B000390184E091E0909333018093320185EC1A
:1009C00090E090933F0180933E0184EC90E09093FF
:1009D00041018093400180EC90E09093430180932B
:1009E000420181EC90E0909345018093440182ECB8
:1009F00090E0909347018093460186EC90E09093BD
:100A000049018093480110924B0110924C011092C1
:100A10004D0110924E011092F90187E08093F70189
:100A200086E08093F80161E087E00E94B90160E010
:100A30008091F8010E94B90180E29EE4A0E0B0E05C
:100A40008093FE019093FF01A0930002B0930102F6
:100A50008091F3018C30A0F491E0980F9093F30112
:100A60008093F40190E0FC01EE0FFF1F8E0F9F1F9B
:100A7000FC01E153FE4F88EB9BE092838183089554
:100A80008FEF8093F4010895789484B5826084BDDB
:100A900084B5816084BD85B5826085BD85B5816082
:100AA00085BD80916E00816080936E001092810000
:100AB00080918100826080938100809181008160BB
:100AC000809381008091800081608093800080917C
:100AD000B10084608093B1008091B0008160809308
:100AE000B00080917A00846080937A0080917A00CF
:100AF000826080937A0080917A00816080937A008E
:100B000080917A00806880937A001092C1000E94E0
:100B1000100160E086E00E94B90161E087E00E9478
:100B2000B9018091F4018C3008F051C061E089E096
:100B30000E94B9018091F401E82FF0E09F01220F9B
:100B4000331FE20FF31FE153FE4F9081907C9960B9
:100B500090831092F5011092F6016CE00E9422073A
:100B60009CE0899FB001112440E050E09B01240FDC
:100B7000351FF901EE0FFF1F2E0F3F1FF901E15343
:100B8000FE4F908196FD16C04F5F5F4F4C30510570
:100B900069F781110FC01092800082E0809381007C
:100BA0001092850010928400B19A80916F0082604B
:100BB00080936F00E091F401F0E0CF01880F991F5E
:100BC000E80FF91FE153FE4F8081806480830E940B
:100BD000100180E090E00E948C0003E010E083E2CE
:100BE000E82EF12C98E3C92ED12C8091F9018823AD
:100BF00029F061E08091F7010E94B90160E08091E5
:100C0000F7010E948A01C8010197F1F761E0809124
:100C1000F7010E948A01C7010197F1F760E0809116
:100C2000F7010E948A018091F901882329F060E090
:100C30008091F7010E94B9010E94F5016093FA01C9
:100C40007093FB018093FC019093FD018091F8016A
:100C50000E946101892BE9F40E94F5018090FA015C
:100C60009090FB01A090FC01B090FD01DC01CB0154
:100C700088199909AA09BB098090FE019090FF018B
:100C8000A0900002B090010288169906AA06BB0641
:100C9000E8F60E94F5016093FA017093FB018093DE
:100CA000FC019093FD018091F8010E946101892B64
:100CB000E9F00E94F5018090FA019090FB01A0906C
:100CC000FC01B090FD01DC01CB0188199909AA094A
:100CD000BB098090FE019090FF01A0900002B090AF
:100CE000010288169906AA06BB06E8F60E94F501DD
:100CF0002091FA013091FB01CB01821B930BB601CD
:100D00000E942E07709328016093270148E050E06D
:100D10006BE171E082E391E00E94540264EF71E0C4
:100D200080E090E00E941A028091270190912801B2
:100D30000A9714F51092260110922501C091250101
:100D4000D0912601CA35D1057CF4CE010E948C00D9
:100D50006FE070E080E090E00E941A022196D0934C
:100D60002601C0932501EACF48E050E062E171E03E
:100D700082E391E00E9454020E945A0336CF052E6E
:100D800097FB1EF400940E94D60657FD07D00E94E0
:100D9000F10607FC03D04EF40C94D606509540950E
:100DA000309521953F4F4F4F5F4F08959095809517
:100DB000709561957F4F8F4F9F4F08950E94130745
:100DC000A59F900DB49F900DA49F800D911D11249F
:100DD0000895B7FF0C94DE060E94DE06821B930B7B
:100DE0000895A1E21A2EAA1BBB1BFD010DC0AA1F6C
:100DF000BB1FEE1FFF1FA217B307E407F50720F084
:100E0000A21BB30BE40BF50B661F771F881F991FFE
:100E10001A9469F760957095809590959B01AC0147
:100E2000BD01CF010895A29FB001B39FC001A39F50
:100E3000700D811D1124911DB29F700D811D112413
:100E4000911D0895991B79E004C0991F961708F029
:100E5000961B881F7A95C9F780950895AA1BBB1B1E
:100E600051E107C0AA1FBB1FA617B70710F0A61BAA
:100E7000B70B881F991F5A95A9F780959095BC01CB
:100E8000CD010895EE0FFF1F0590F491E02D099418
:0E0E900081E090E0F8940C944D07F894FFCFA9
:100E9E0000000000EB02540282023803B3029102FA
:100EAE00A502455351554552444100506F6465208B
:040EBE006972200035
:00000001FF
