:100000000C9462000C948A000C948A000C948A0070
:100010000C948A000C948A000C948A000C948A0038
:100020000C948A000C948A000C948A000C94790336
:100030000C948A000C948A000C948A000C948A0018
:100040000C94D7020C948A000C9447030C9421035F
:100050000C948A000C948A000C948A000C948A00F8
:100060000C948A000C948A000000000024002700F1
:100070002A000000000023002600290000000000E4
:10008000250028002B0004040404040404040202D4
:100090000202020203030303030301020408102007
:1000A0004080010204081020010204081020000012
:1000B0000008000201000003040700000000000027
:1000C00000003A0411241FBECFEFD8E0DEBFCDBF41
:1000D00011E0A0E0B1E0E4E9FCE002C005900D927F
:1000E000A231B107D9F721E0A2E1B1E001C01D9230
:1000F000A13EB207E1F710E0C2E6D0E004C02197CC
:10010000FE010E943D06C136D107C9F70E9498043E
:100110000C9448060C940000CF92DF92EF92FF926D
:10012000DC01A03282E0B8070CF03EC0B7FD06C08B
:10013000A53BB1052CF0A4EBB0E002C0A0E0B0E01C
:100140008091DF0128E830E06901C81AD10887FDF5
:10015000D394CC0CDD1CCC0CDD1C0D2C000CEE085B
:10016000FF088091E00128E532E0281B310987FD76
:100170003395220F331F220F331FA901330F660B54
:10018000770B9A01AB012C193D094E095F090E94BA
:10019000F80524EB30E040E050E00E94CE05C20EAE
:1001A000D31EE41EF51ED6019091DE019C3098F519
:1001B0008091DF0148E850E0481B510987FD5395C5
:1001C000440F551F440F551FA417B5078CF080919D
:1001D000E00128E532E0281B310987FD3395220F25
:1001E000331F220F331FAD012A173B070CF4A9015F
:1001F00042505109440F551F2FB7F894892F90E0B2
:10020000FC01EE0FFF1F8E0F9F1FFC01E754FE4FF6
:10021000528341832FBFFF90EF90DF90CF900895DE
:10022000833081F028F4813099F08230A1F0089574
:100230008730A9F08830B9F08430D1F48091800003
:100240008F7D03C0809180008F7780938000089518
:1002500084B58F7702C084B58F7D84BD0895809169
:10026000B0008F7703C08091B0008F7D8093B00085
:1002700008951F93CF93DF93282F30E0F901E255C3
:10028000FF4F8491F901E656FF4FD491F901EA57E7
:10029000FF4FC491CC23C1F0162F81110E94100191
:1002A000EC2FF0E0EE0FFF1FE458FF4FA591B49143
:1002B0009FB7F894111104C08C91D095D82302C037
:1002C000EC91DE2BDC939FBFDF91CF911F910895BE
:1002D0003FB7F8948091180190911901A0911A01EB
:1002E000B0911B0126B5A89B05C02F3F19F00196C0
:1002F000A11DB11D3FBFBA2FA92F982F8827820FAC
:10030000911DA11DB11DBC01CD0142E0660F771FFB
:10031000881F991F4A95D1F708958F929F92AF92A7
:10032000BF92CF92DF92EF92FF920E9468014B0141
:100330005C0188EEC82E83E0D82EE12CF12C0E94BF
:100340006801DC01CB0188199909AA09BB09883E1B
:100350009340A105B10598F321E0C21AD108E10844
:10036000F10888EE880E83E0981EA11CB11CC11410
:10037000D104E104F10419F7FF90EF90DF90CF90E2
:10038000BF90AF909F908F900895CF92DF92EF92A1
:10039000FF920F931F93CF93DF936C017A018B0130
:1003A000C0E0D0E0CE15DF0581F0D8016D918D0160
:1003B000D601ED91FC910190F081E02DC6010995E7
:1003C000892B11F02196EECF7E01C701DF91CF91ED
:1003D0001F910F91FF90EF90DF90CF9008950895B7
:1003E00080E090E00895FC01538D448D252F30E08E
:1003F000842F90E0821B930B541710F0CF96089532
:1004000001970895FC01918D828D981761F0828D7E
:10041000DF01A80FB11D5D968C91928D9F5F9F7338
:10042000928F90E008958FEF9FEF0895FC01918DDA
:10043000828D981731F0828DE80FF11D858D90E047
:1004400008958FEF9FEF0895FC01918D228D892FE4
:1004500090E0805C9F4F821B91098F7399270895CC
:100460008CE191E00E94240221E0892B09F420E034
:10047000822F0895FC01848DDF01A80FB11DA35ABE
:10048000BF4F2C91848D90E001968F739927848FB4
:10049000A689B7892C93A089B1898C9183708064D7
:1004A0008C93938D848D981306C00288F389E02D78
:1004B00080818F7D80830895EF92FF920F931F9329
:1004C000CF93DF93EC0181E0888F9B8D8C8D981307
:1004D00005C0E889F989808185FD26C0F62E0B8D3F
:1004E00010E00F5F1F4F0F731127E02E8C8DE81265
:1004F0000CC00FB607FCFACFE889F989808185FF27
:10050000F5CFCE010E943A02F1CF8B8DFE01E80FAC
:10051000F11DE35AFF4FF0829FB7F8940B8FEA89E1
:10052000FB89808180620AC09FB7F894EE89FF89B9
:100530006083E889F98980818370806480839FBFAC
:1005400081E090E0DF91CF911F910F91FF90EF90AC
:100550000895CF93DF93EC01888D8823C9F0EA8951
:10056000FB89808185FD05C0A889B9898C9186FDAC
:100570000FC00FB607FCF5CF808185FFF2CFA889A9
:10058000B9898C9185FFEDCFCE010E943A02E7CF69
:10059000DF91CF91089580E090E0892B29F00E94AF
:1005A000300281110C94000008950E9443061F92AE
:1005B0000F920FB60F9211242F933F938F939F9317
:1005C000AF93BF938091140190911501A0911601F2
:1005D000B09117013091130123E0230F2D3720F440
:1005E0000196A11DB11D05C026E8230F0296A11D8D
:1005F000B11D209313018093140190931501A093D2
:100600001601B09317018091180190911901A091E2
:100610001A01B0911B010196A11DB11D8093180113
:1006200090931901A0931A01B0931B01BF91AF9150
:100630009F918F913F912F910F900FBE0F901F9020
:1006400018951F920F920FB60F9211242F933F937C
:100650004F935F936F937F938F939F93AF93BF93CA
:10066000EF93FF938CE191E00E943A02FF91EF91AA
:10067000BF91AF919F918F917F916F915F914F91BA
:100680003F912F910F900FBE0F901F9018951F92C2
:100690000F920FB60F9211242F938F939F93EF9386
:1006A000FF93E0912C01F0912D018081E0913201C6
:1006B000F091330182FD12C09081809135018F5FEE
:1006C0008F7320913601821751F0E0913501F0E0EF
:1006D000E45EFE4F958F8093350101C08081FF91CC
:1006E000EF919F918F912F910F900FBE0F901F90C0
:1006F00018951F920F920FB60F9211242F933F93CC
:100700004F935F936F937F938F939F93AF93BF9319
:10071000EF93FF938091120187FF05C0109285002F
:10072000109284001BC020911201022E000C330B8A
:100730008091DD0190E02817390784F4809112013F
:10074000082E000C990BFC01EE0FFF1F8E0F9F1F50
:10075000FC01E754FE4F808186FD15C08091120197
:100760008F5F8093120120911201022E000C330B37
:100770008091DD0190E028173907C4F480911201BF
:100780008C3064F113C080911201082E000C990B7B
:10079000FC01EE0FFF1F8E0F9F1FFC01E754FE4F61
:1007A000808160E08F730E943901D8CF80918400EE
:1007B00090918500049680349C4918F480E49CE96B
:1007C00005C08091840090918500049690938900E3
:1007D000809388008FEF809312013BC020918400AA
:1007E0003091850080911201082E000C990BFC01BC
:1007F000EE0FFF1F8E0F9F1FFC01E754FE4F8181FC
:100800009281820F931F909389008093880080913A
:100810001201082E000C990BFC01EE0FFF1F8E0F2A
:100820009F1FFC01E754FE4F808186FF12C080911C
:100830001201082E000C990BFC01EE0FFF1F8E0F0A
:100840009F1FFC01E754FE4F808161E08F730E947F
:100850003901FF91EF91BF91AF919F918F917F915E
:100860006F915F914F913F912F910F900FBE0F901D
:100870001F90189510921F0110921E0188EE93E0B0
:10088000A0E0B0E08093200190932101A093220189
:10089000B093230184E091E090931D0180931C01AB
:1008A00085EC90E0909329018093280184EC90E0FE
:1008B00090932B0180932A0180EC90E090932D017E
:1008C00080932C0181EC90E090932F0180932E0176
:1008D00082EC90E0909331018093300186EC90E0BF
:1008E00090933301809332011092350110923601BA
:1008F00010923701109238018091DD018C30A0F404
:1009000091E0980F9093DD018093DE0190E0FC016F
:10091000EE0FFF1F8E0F9F1FFC01E754FE4F88EB69
:100920009BE09283818308958FEF8093DE01089589
:10093000789484B5826084BD84B5816084BD85B5BA
:10094000826085BD85B5816085BD80916E008160C6
:1009500080936E001092810080918100826080936C
:10096000810080918100816080938100809180006E
:100970008160809380008091B10084608093B10099
:100980008091B00081608093B00080917A00846093
:1009900080937A0080917A00826080937A008091BF
:1009A0007A00816080937A0080917A0080688093D9
:1009B0007A001092C1008091DE018C3008F068C08E
:1009C000E0EAF0E02491ECE8F0E08491882399F0EB
:1009D00090E0880F991FFC01E859FF4FA591B49151
:1009E000FC01E458FF4F859194918FB7F894EC91F6
:1009F000E22BEC938FBF8091DE01E82FF0E09F01A6
:100A0000220F331FE20FF31FE754FE4F9081907CBB
:100A1000966090831092DF011092E0016CE00E94DA
:100A200031069CE0899FB001112440E050E09B0119
:100A3000240F351FF901EE0FFF1F2E0F3F1FF90185
:100A4000E754FE4F908196FD16C04F5F5F4F4C30CC
:100A5000510569F781110FC01092800082E08093E8
:100A600081001092850010928400B19A80916F00ED
:100A7000826080936F00E091DE01F0E0CF01880F8B
:100A8000991FE80FF91FE754FE4F8081806480832F
:100A9000E0912C01F0912D0182E08083E09128010A
:100AA000F09129011082E0912A01F0912B018FEC45
:100AB000808310923401E0913001F091310186E0A1
:100AC0008083E0912E01F0912F01808180618083ED
:100AD000E0912E01F0912F01808188608083E09168
:100AE0002E01F0912F01808180688083E0912E019A
:100AF000F0912F0180818F7D80838AE590E00E94B4
:100B00008C00C4EAD0E0FE01449100E910E0F80155
:100B100084918823C9F090E0880F991FFC01E8595F
:100B2000FF4F25913491FC01E458FF4FA591B491FA
:100B30005FB7F894F9019081842F80959823908372
:100B40008C91842B8C935FBF98EBE92E90E0F92E6B
:100B5000F7018491FE01C490F801D490DD20B9F032
:100B600081110E941001ED2DF0E0EE0FFF1FEE58F5
:100B7000FF4FA591B4918C918C2149F080E090E0D9
:100B80000E948C000E948D010E94CB02E1CF8AE579
:100B900090E00E948C000E948D01F0CF052E97FB03
:100BA0001EF400940E94E50557FD07D00E94000640
:100BB00007FC03D04EF40C94E50550954095309514
:100BC00021953F4F4F4F5F4F0895909580957095B9
:100BD00061957F4F8F4F9F4F08950E942206A59FDA
:100BE000900DB49F900DA49F800D911D1124089528
:100BF000B7FF0C94ED050E94ED05821B930B089541
:100C0000A1E21A2EAA1BBB1BFD010DC0AA1FBB1F10
:100C1000EE1FFF1FA217B307E407F50720F0A21B82
:100C2000B30BE40BF50B661F771F881F991F1A94EF
:100C300069F760957095809590959B01AC01BD0119
:100C4000CF010895A29FB001B39FC001A39F700D73
:100C5000811D1124911DB29F700D811D1124911DC4
:100C60000895991B79E004C0991F961708F0961B08
:100C7000881F7A95C9F780950895EE0FFF1F05909C
:100C8000F491E02D099481E090E0F8940C944806EA
:040C9000F894FFCF06
:100C9400000000005C02C501F301A9022402020263
:020CA400160236
:00000001FF
