:100000000C945C000C9479000C9479000C947900A9
:100010000C9479000C9479000C9479000C9479007C
:100020000C9479000C9479000C9479000C9479006C
:100030000C9479000C9479000C9479000C9479005C
:100040000C946A010C9479000C9479000C9479005A
:100050000C9479000C9479000C9479000C9479003C
:100060000C9479000C947900000000080002010053
:100070000003040700000000000000000000000072
:10008000250028002B0000000000240027002A0083
:10009000040404040404040402020202020203032E
:1000A0000303030301020408102040800102040836
:1000B000102001020408102011241FBECFEFD8E049
:1000C000DEBFCDBF11E0A0E0B1E0E8EDF6E002C098
:1000D00005900D92A430B107D9F721E0A4E0B1E07A
:1000E00001C01D92AD30B207E1F70E94B4010C943B
:1000F0006A030C94000090E0FC01EC55FF4F249142
:10010000FC01E057FF4F8491882399F090E0880F1D
:10011000991FFC01EA57FF4FA591B491FC01E458E7
:10012000FF4F859194918FB7F894EC91E22BEC936B
:100130008FBF089590E0FC01E859FF4F2491FC0126
:10014000EC55FF4F3491FC01E057FF4FE491EE2353
:1001500009F43CC0222339F1233091F038F42130E6
:10016000A9F0223001F584B58F7D12C0273091F0BF
:100170002830A1F02430B9F4809180008F7D03C035
:10018000809180008F77809380000DC084B58F7739
:1001900084BD09C08091B0008F7703C08091B0000A
:1001A0008F7D8093B000F0E0EE0FFF1FE458FF4F0B
:1001B000A591B4919FB7F894611104C08C913095CA
:1001C000382302C0EC913E2B3C939FBF08951F93B0
:1001D000CF93DF93182FEB010E947B00209711F43F
:1001E00060E004C0CF3FD10539F461E0812FDF9199
:1001F000CF911F910C949A00E12FF0E0E859FF4F46
:10020000E491E330F9F048F4E130B9F0E230A1F5DF
:1002100084B5806284BDC8BD34C0E730E9F0E83001
:1002200019F1E43049F5809180008062809380006C
:10023000D0938B00C0938A0024C084B5806884BDAD
:10024000C7BD1FC080918000806880938000D093DC
:100250008900C093880015C08091B00080688093A9
:10026000B000C093B3000DC08091B0008062809355
:10027000B000C093B40005C0C038D1050CF0B5CFB4
:10028000AFCFDF91CF911F9108953FB7F894809140
:10029000090190910A01A0910B01B0910C0126B5C2
:1002A000A89B05C02F3F19F00196A11DB11D3FBFAE
:1002B000BA2FA92F982F8827820F911DA11DB11D3C
:1002C000BC01CD0142E0660F771F881F991F4A9538
:1002D000D1F708951F920F920FB60F9211242F930A
:1002E0003F938F939F93AF93BF938091050190911C
:1002F0000601A0910701B09108013091040123E0AB
:10030000230F2D3720F40196A11DB11D05C026E84D
:10031000230F0296A11DB11D2093040180930501B6
:1003200090930601A0930701B09308018091090101
:1003300090910A01A0910B01B0910C010196A11DB1
:10034000B11D8093090190930A01A0930B01B09312
:100350000C01BF91AF919F918F913F912F910F9081
:100360000FBE0F901F901895789484B5826084BD5D
:1003700084B5816084BD85B5826085BD85B58160A9
:1003800085BD80916E00816080936E001092810027
:1003900080918100826080938100809181008160E2
:1003A00080938100809180008160809380008091A3
:1003B000B10084608093B1008091B000816080932F
:1003C000B00080917A00846080937A0080917A00F6
:1003D000826080937A0080917A00816080937A00B5
:1003E00080917A00806880937A001092C1008BE03F
:1003F0000E947B008AE00E947B0089E00E947B00D3
:1004000088E7882E912CA12CB12C00E010E0C1E1EE
:10041000D7E20E94B002A50194010E940703695728
:100420007F4F8BE00E94E7000E94B002A50194017B
:100430000E94070369577F4F8AE00E94E7000E94ED
:10044000B002A50194010E94070369577F4F89E01C
:100450000E94E7000E94B00224EF31E040E050E04B
:100460000E9407036B017C010E9445012B013C01A6
:10047000C114D104E104F104F1F00E944501DC0152
:10048000CB0184199509A609B709883E9340A105B7
:10049000B10570F321E0C21AD108E108F10888EE35
:1004A000480E83E0581E611C711CC114D104E10484
:1004B000F10419F7DDCF219709F0ABCF0115110534
:1004C00009F4A5CF0E940000A2CF8F929F92AF9215
:1004D000BF92CF92DF92EF92FF92CF93DF93EC0126
:1004E000688179818A819B816115710581059105FA
:1004F00021F464E279ED8BE597E02DE133EF41E003
:1005000050E00E94070349015A019B01AC01A7EA90
:10051000B1E40E9426036B017C01ACEEB4EFA501AF
:1005200094010E943403DC01CB018C0D9D1DAE1D96
:10053000BF1DB7FF03C00197A109B0488883998305
:10054000AA83BB83BC01CD019F77DF91CF91FF9040
:10055000EF90DF90CF90BF90AF909F908F900895D5
:100560008F929F92AF92BF92CF92DF92EF92FF92C3
:10057000609100017091010180910201909103014D
:10058000611571058105910521F464E279ED8BE532
:1005900097E02DE133EF41E050E00E94070349016D
:1005A0005A019B01AC01A7EAB1E40E9426036B014A
:1005B0007C01ACEEB4EFA50194010E943403DC0190
:1005C000CB018C0D9D1DAE1DBF1DB7FF03C0019754
:1005D000A109B0488093000190930101A09302010A
:1005E000B0930301BC01CD019F77FF90EF90DF90A6
:1005F000CF90BF90AF909F908F900895609300012F
:100600007093010180930201909303010895052ED8
:1006100097FB1EF400940E941E0357FD07D00E9412
:10062000390307FC03D04EF40C941E0350954095FB
:10063000309521953F4F4F4F5F4F0895909580958E
:10064000709561957F4F8F4F9F4F08950E945B0378
:10065000A59F900DB49F900DA49F800D911D112416
:100660000895B7FF0C9426030E942603821B930B68
:100670000895A1E21A2EAA1BBB1BFD010DC0AA1FE3
:10068000BB1FEE1FFF1FA217B307E407F50720F0FB
:10069000A21BB30BE40BF50B661F771F881F991F76
:1006A0001A9469F760957095809590959B01AC01BF
:1006B000BD01CF010895A29FB001B39FC001A39FC8
:1006C000700D811D1124911DB29F700D811D11248B
:0806D000911D0895F894FFCF7D
:0406D800010000001D
:00000001FF
