:100000000C945D000C9485000C9485000C94850084
:100010000C9485000C9485000C9485000C9485004C
:100020000C9485000C9485000C9485000C9485003C
:100030000C9485000C9485000C9485000C9485002C
:100040000C94E0020C9485000C9450030C942A0349
:100050000C9485000C9485000C9485000C9485000C
:100060000C9485000C94850000000008000201003B
:100070000003040700000000000000000000000072
:10008000250028002B0000000000240027002A0083
:10009000040404040404040402020202020203032E
:1000A0000303030301020408102040800102040836
:1000B0001020010204081020040511241FBECFEFF8
:1000C000D8E0DEBFCDBF11E0A0E0B1E0ECE7FAE0A0
:1000D00002C005900D92A231B107D9F721E0A2E14B
:1000E000B1E001C01D92A83BB207E1F710E0CDE5F9
:1000F000D0E004C02197FE010E943105CC35D10724
:10010000C9F70E9482030C943C050C94000090E017
:10011000FC01EC55FF4F2491FC01E057FF4F849107
:10012000882399F090E0880F991FFC01EA57FF4F50
:10013000A591B491FC01E458FF4F859194918FB73C
:10014000F894EC91E22BEC938FBF089590E0FC01C2
:10015000E859FF4F2491FC01EC55FF4F3491FC010D
:10016000E057FF4FE491EE2309F43CC0222339F11C
:10017000233091F038F42130A9F0223001F584B514
:100180008F7D12C0273091F02830A1F02430B9F4CF
:10019000809180008F7D03C0809180008F77809355
:1001A00080000DC084B58F7784BD09C08091B000F8
:1001B0008F7703C08091B0008F7D8093B000F0E016
:1001C000EE0FFF1FE458FF4FA591B4919FB7F8942D
:1001D000611104C08C913095382302C0EC913E2B04
:1001E0003C939FBF08951F93CF93DF93182FEB018C
:1001F0000E948700209711F460E004C0CF3FD10532
:1002000039F461E0812FDF91CF911F910C94A6000A
:10021000E12FF0E0E859FF4FE491E330F9F048F4C2
:10022000E130B9F0E230A1F584B5806284BDC8BD8B
:1002300034C0E730E9F0E83019F1E43049F5809155
:100240008000806280938000D0938B00C0938A00EE
:1002500024C084B5806884BDC7BD1FC08091800064
:10026000806880938000D0938900C093880015C077
:100270008091B00080688093B000C093B3000DC03F
:100280008091B00080628093B000C093B40005C03C
:10029000C038D1050CF0B5CFAFCFDF91CF911F9112
:1002A00008953FB7F8948091B4019091B501A09161
:1002B000B601B091B70126B5A89B05C02F3F19F034
:1002C0000196A11DB11D3FBFBA2FA92F982F8827D6
:1002D000820F911DA11DB11DBC01CD0142E0660F31
:1002E000771F881F991F4A95D1F708958F929F9283
:1002F000AF92BF92CF92DF92EF92FF926B017C019F
:100300000E9451014B015C01C114D104E104F104CC
:10031000F1F00E945101DC01CB0188199909AA0969
:10032000BB09883E9340A105B10570F321E0C21AD4
:10033000D108E108F10888EE880E83E0981EA11C20
:10034000B11CC114D104E104F10419F7DDCFFF9011
:10035000EF90DF90CF90BF90AF909F908F900895D7
:10036000CF92DF92EF92FF920F931F93CF93DF9381
:100370006C017A018B01C0E0D0E0CE15DF0581F081
:10038000D8016D918D01D601ED91FC910190F08124
:10039000E02DC6010995892B11F02196EECF7E0143
:1003A000C701DF91CF911F910F91FF90EF90DF90E8
:1003B000CF900895089580E090E00895FC01538D5A
:1003C000448D252F30E0842F90E0821B930B54172F
:1003D00010F0CF96089501970895FC01918D828DBC
:1003E000981761F0828DDF01A80FB11D5D968C9189
:1003F000928D9F5F9F73928F90E008958FEF9FEF94
:100400000895FC01918D828D981731F0828DE80F4F
:10041000F11D858D90E008958FEF9FEF0895FC0109
:10042000918D228D892F90E0805C9F4F821B9109D6
:100430008F739927089582E191E00E940F0221E0D5
:10044000892B09F420E0822F0895FC01848DDF01BF
:10045000A80FB11DA35ABF4F2C91848D90E0019637
:100460008F739927848FA689B7892C93A089B18926
:100470008C91837080648C93938D848D981306C0C7
:100480000288F389E02D80818F7D80830895EF922B
:10049000FF920F931F93CF93DF93EC0181E0888F3E
:1004A0009B8D8C8D981305C0E889F989808185FD25
:1004B00026C0F62E0B8D10E00F5F1F4F0F73112714
:1004C000E02E8C8DE8120CC00FB607FCFACFE8893D
:1004D000F989808185FFF5CFCE010E942502F1CFF9
:1004E0008B8DFE01E80FF11DE35AFF4FF0829FB79D
:1004F000F8940B8FEA89FB89808180620AC09FB7DC
:10050000F894EE89FF896083E889F9898081837096
:10051000806480839FBF81E090E0DF91CF911F9145
:100520000F91FF90EF900895CF93DF93EC01888DAA
:100530008823C9F0EA89FB89808185FD05C0A889E7
:10054000B9898C9186FD0FC00FB607FCF5CF80816D
:1005500085FFF2CFA889B9898C9185FFEDCFCE01B7
:100560000E942502E7CFDF91CF91089580E090E0CF
:10057000892B29F00E941B0281110C940000089520
:100580000F931F93CF93DF938B01EA01BC0187E0A8
:100590000E94F300B80186E00E94F300BE0185E0EE
:1005A000DF91CF911F910F910C94F30040E050E048
:1005B00060E070E080E090E00C94C0020E9437059B
:1005C0001F920F920FB60F9211242F933F938F9388
:1005D0009F93AF93BF938091B0019091B101A0918F
:1005E000B201B091B3013091AF0123E0230F2D3759
:1005F00020F40196A11DB11D05C026E8230F029627
:10060000A11DB11D2093AF018093B0019093B10162
:10061000A093B201B093B3018091B4019091B50160
:10062000A091B601B091B7010196A11DB11D8093B3
:10063000B4019093B501A093B601B093B701BF91F7
:10064000AF919F918F913F912F910F900FBE0F907F
:100650001F9018951F920F920FB60F9211242F938F
:100660003F934F935F936F937F938F939F93AF933A
:10067000BF93EF93FF9382E191E00E942502FF91E7
:10068000EF91BF91AF919F918F917F916F915F910A
:100690004F913F912F910F900FBE0F901F90189583
:1006A0001F920F920FB60F9211242F938F939F9347
:1006B000EF93FF93E0912201F09123018081E0917B
:1006C0002801F091290182FD12C0908180912B01B7
:1006D0008F5F8F7320912C01821751F0E0912B01D5
:1006E000F0E0EE5EFE4F958F80932B0101C080817C
:1006F000FF91EF919F918F912F910F900FBE0F90CF
:100700001F901895789484B5826084BD84B581600B
:1007100084BD85B5826085BD85B5816085BD8091CC
:100720006E00816080936E00109281008091810044
:10073000826080938100809181008160809381003C
:10074000809180008160809380008091B1008460FE
:100750008093B1008091B00081608093B00080915F
:100760007A00846080937A0080917A00826080931E
:100770007A0080917A00816080937A0080917A007B
:10078000806880937A001092C100E0912201F0917C
:10079000230182E08083E0911E01F0911F0110820D
:1007A000E0912001F09121018FEC808310922A01C9
:1007B000E0912601F091270186E08083E0912401F9
:1007C000F0912501808180618083E0912401F09186
:1007D0002501808188608083E0912401F0912501CA
:1007E000808180688083E0912401F09125018081DF
:1007F0008F7D808385E00E94870086E00E948700CD
:1008000087E00E9487000E94D60268EE73E080E0D5
:1008100090E00E9476014FEF50E06FEF70E08FEFB5
:1008200090E00E94C00268EE73E080E090E00E94D9
:10083000760140E050E06FEF70E080E090E00E94D1
:10084000C00268EE73E080E090E00E94760140E034
:1008500050E060E070E08FEF90E00E94C00268EE30
:1008600073E080E090E00E9476014FEF50E060E09E
:1008700070E080E090E00E94C00268EE73E080E0EB
:1008800090E00E9476014DE750E06FEF70E08FEF4F
:1008900090E00E94C00268EE73E080E090E00E9469
:1008A00076014FEF50E06FEF70E080E090E00E9443
:1008B000C00268EE73E080E090E00E9476014FEFA6
:1008C00050E060E070E08FEF90E00E94C00268EEC0
:1008D00073E080E090E00E94760140E050E06FEF2E
:1008E00070E08FEF90E00E94C00268EE73E080E05D
:1008F00090E00E9476014FEF50E06FEF70E08FEFD5
:1009000090E00E94C00262E370E080E090E00E940C
:1009100076010E94D60240E050E06FEF70E080E088
:1009200090E00E94C00262E370E080E090E00E94EC
:1009300076010E94D60240E050E060E070E08FEF68
:1009400090E00E94C00262E370E080E090E00E94CC
:1009500076010E94D6024FEF50E060E070E080E048
:1009600090E00E94C00262E370E080E090E00E94AC
:1009700076010E94D6024DE750E06FEF70E08FEFF6
:1009800090E00E94C00262E370E080E090E00E948C
:1009900076010E94D6024FEF50E06FEF70E080E0EA
:1009A00090E00E94C00262E370E080E090E00E946C
:1009B00076010E94D6024FEF50E060E070E08FEFCA
:1009C00090E00E94C00262E370E080E090E00E944C
:1009D00076010E94D60240E050E06FEF70E08FEFAA
:1009E00090E00E94C00262E370E080E090E00E942C
:1009F00076010E94D60268EB7BE080E090E00E94E6
:100A000076010E94B602FFCEE2E1F1E0138212828B
:100A100088EE93E0A0E0B0E084839583A683B7835B
:100A200084E091E09183808385EC90E095878487D2
:100A300084EC90E09787868780EC90E0918B808BA8
:100A400081EC90E0938B828B82EC90E0958B848B91
:100A500086EC90E0978B868B118E128E138E148EFF
:100A60000895EE0FFF1F0590F491E02D099481E0A9
:0C0A700090E0F8940C943C05F894FFCF43
:100A7C00000000004702B001DE0194020F02ED01FC
:020A8C00010265
:00000001FF
