:100000000C9462000C948A000C948A000C948A0070
:100010000C948A000C948A000C948A000C948A0038
:100020000C948A000C948A000C948A000C948A0028
:100030000C948A000C948A000C948A000C948A0018
:100040000C94CC020C948A000C943C030C94160380
:100050000C948A000C948A000C948A000C948A00F8
:100060000C948A000C948A000000000023002600F3
:10007000290000000000240027002A0000000000E2
:10008000250028002B0004040404040404040202D4
:100090000202020203030303030301020408102007
:1000A0004080010204081020010204081020000012
:1000B0000008000201000003040700000000000027
:1000C00000001B0511241FBECFEFD8E0DEBFCDBF5F
:1000D00011E0A0E0B1E0E4EBFCE002C005900D927D
:1000E000A631B107D9F721E0A6E1B1E001C01D9228
:1000F000AD3BB207E1F710E0C2E6D0E004C02197C3
:10010000FE010E944D06C136D107C9F70E946E0359
:100110000C9458060C940000833081F028F4813050
:1001200099F08230A1F008958730A9F08830B9F0B5
:100130008430D1F4809180008F7D03C08091800055
:100140008F7780938000089584B58F7702C084B53F
:100150008F7D84BD08958091B0008F7703C080911A
:10016000B0008F7D8093B00008951F93CF93DF93ED
:10017000282F30E0F901E255FF4F8491F901E6564E
:10018000FF4FD491F901EA57FF4FC491CC23C1F03E
:10019000162F81110E948C00EC2FF0E0EE0FFF1F54
:1001A000E458FF4FA591B4919FB7F894111104C082
:1001B0008C91D095D82302C0EC91DE2BDC939FBFAD
:1001C000DF91CF911F910895CF93DF9390E0FC01D1
:1001D000E656FF4F2491FC01EA57FF4F8491882394
:1001E00061F190E0880F991FFC01EE58FF4FC59117
:1001F000D491FC01E458FF4FA591B491611109C05D
:100200009FB7F8948881209582238883EC912E23D0
:100210000BC0623061F49FB7F8948881322F30951B
:1002200083238883EC912E2B2C939FBF06C08FB71E
:10023000F894E8812E2B28838FBFDF91CF9108950A
:100240003FB7F8948091B9019091BA01A091BB0198
:10025000B091BC0126B5A89B05C02F3F19F00196AF
:10026000A11DB11D3FBFBA2FA92F982F8827820F3C
:10027000911DA11DB11DBC01CD0142E0660F771F8C
:10028000881F991F4A95D1F708958F929F92AF9238
:10029000BF92CF92DF92EF92FF926B017C010E949E
:1002A00020014B015C01C114D104E104F104F1F01F
:1002B0000E942001DC01CB0188199909AA09BB0918
:1002C000883E9340A105B10570F321E0C21AD10820
:1002D000E108F10888EE880E83E0981EA11CB11C8D
:1002E000C114D104E104F10419F7DDCFFF90EF90C0
:1002F000DF90CF90BF90AF909F908F900895CF9256
:10030000DF92EF92FF920F931F93CF93DF936C01D5
:100310007A018B01C0E0D0E0CE15DF0581F0D80175
:100320006D918D01D601ED91FC910190F081E02D50
:10033000C6010995892B11F02196EECF7E01C701E8
:10034000DF91CF911F910F91FF90EF90DF90CF90B1
:100350000895089580E090E00895FC01538D448D48
:10036000252F30E0842F90E0821B930B541710F060
:10037000CF96089501970895FC01918D828D98176D
:1003800061F0828DDF01A80FB11D5D968C91928D79
:100390009F5F9F73928F90E008958FEF9FEF089576
:1003A000FC01918D828D981731F0828DE80FF11D3F
:1003B000858D90E008958FEF9FEF0895FC01918D5A
:1003C000228D892F90E0805C9F4F821B91098F7353
:1003D0009927089587E191E00E94DE0121E0892BB1
:1003E00009F420E0822F0895FC01848DDF01A80F1D
:1003F000B11DA35ABF4F2C91848D90E001968F734D
:100400009927848FA689B7892C93A089B1898C916B
:10041000837080648C93938D848D981306C00288BA
:10042000F389E02D80818F7D80830895EF92FF9284
:100430000F931F93CF93DF93EC0181E0888F9B8D07
:100440008C8D981305C0E889F989808185FD26C0C7
:10045000F62E0B8D10E00F5F1F4F0F731127E02E4C
:100460008C8DE8120CC00FB607FCFACFE889F98929
:10047000808185FFF5CFCE010E94F401F1CF8B8DF5
:10048000FE01E80FF11DE35AFF4FF0829FB7F89489
:100490000B8FEA89FB89808180620AC09FB7F8943C
:1004A000EE89FF896083E889F9898081837080649F
:1004B00080839FBF81E090E0DF91CF911F910F91EA
:1004C000FF90EF900895CF93DF93EC01888D882300
:1004D000C9F0EA89FB89808185FD05C0A889B989B1
:1004E0008C9186FD0FC00FB607FCF5CF808185FF8C
:1004F000F2CFA889B9898C9185FFEDCFCE010E94FA
:10050000F401E7CFDF91CF91089580E090E0892B4F
:1005100029F00E94EA0181110C94000008951F93B4
:10052000CF93DF93C4E0D0E010911601112311F0B6
:1005300060E001C061E084E00E94B50081E08127B5
:100540008093160168EE73E080E090E00E94450120
:10055000219751F7DF91CF911F91089561E08AE0D3
:100560000E94B50061E089E00E94B50061E085E08D
:100570000E94B50061E086E00E94B50061E087E07E
:100580000E94B50061E08BE00E94B50061E08CE064
:100590000C94B5000E9453061F920F920FB60F9253
:1005A00011242F933F938F939F93AF93BF93809189
:1005B000B5019091B601A091B701B091B801309109
:1005C000B40123E0230F2D3720F40196A11DB11DA6
:1005D00005C026E8230F0296A11DB11D2093B4018A
:1005E0008093B5019093B601A093B701B093B80181
:1005F0008091B9019091BA01A091BB01B091BC0169
:100600000196A11DB11D8093B9019093BA01A093E9
:10061000BB01B093BC01BF91AF919F918F913F916E
:100620002F910F900FBE0F901F9018951F920F9251
:100630000FB60F9211242F933F934F935F936F93B5
:100640007F938F939F93AF93BF93EF93FF9387E134
:1006500091E00E94F401FF91EF91BF91AF919F91C2
:100660008F917F916F915F914F913F912F910F905B
:100670000FBE0F901F9018951F920F920FB60F92FA
:1006800011242F938F939F93EF93FF93E091270172
:10069000F09128018081E0912D01F0912E0182FDE1
:1006A00012C09081809130018F5F8F732091310152
:1006B000821751F0E0913001F0E0E95EFE4F958F36
:1006C0008093300101C08081FF91EF919F918F91C4
:1006D0002F910F900FBE0F901F901895789484B5AE
:1006E000826084BD84B5816084BD85B5826085BD2E
:1006F00085B5816085BD80916E00816080936E00BC
:1007000010928100809181008260809381008091AD
:10071000810081608093810080918000816080935E
:1007200080008091B10084608093B1008091B0001E
:1007300081608093B00080917A00846080937A0019
:1007400080917A00826080937A0080917A00816043
:1007500080937A0080917A00806880937A0010926A
:10076000C100E0912701F091280182E08083E091AF
:100770002301F09124011082E0912501F0912601DE
:100780008FEC808310922F01E0912B01F0912C01CE
:1007900086E08083E0912901F0912A0180818061C7
:1007A0008083E0912901F0912A0180818860808313
:1007B000E0912901F0912A01808180688083E09195
:1007C0002901F0912A0180818F7D808361E08AE098
:1007D0000E94E40061E089E00E94E40061E085E0BD
:1007E0000E94E40061E086E00E94E40061E087E0AE
:1007F0000E94E40061E08BE00E94E40061E08CE094
:100800000E94E40061E084E00E94E40062E088E08D
:100810000E94E40006EB10E092EAE92E90E0F92E47
:100820002EE8C22E20E0D22E35E0832E912CA12C72
:10083000B12C0E94AE02F8018491F701C491F60137
:10084000D491DD2379F081110E948C00ED2FF0E02E
:10085000EE0FFF1FE859FF4FA591B4918C91C8236B
:1008600009F089C0C4E0D0E060E08AE00E94B500F1
:100870006DE370E080E090E00E9445010E94AE02CE
:1008800060E089E00E94B5006DE370E080E090E0F8
:100890000E9445010E94AE0260E085E00E94B50022
:1008A0006DE370E080E090E00E9445010E94AE029E
:1008B00060E086E00E94B5006DE370E080E090E0CB
:1008C0000E9445010E94AE0260E087E00E94B500F0
:1008D0006DE370E080E090E00E9445010E94AE026E
:1008E00060E08BE00E94B5006DE370E080E090E096
:1008F0000E9445010E94AE02219709F0B5CF0E94E7
:100900009305A50194010E94EA05DC01CB01019643
:10091000A11DB11D83309105A105B10509F45BC08E
:100920000CF042C081309105A105B10539F561E0B7
:100930008AE00E94B50060E089E00E94B50060E0B6
:1009400085E00E94B50061E086E00E94B50061E0AC
:1009500087E00E94B50061E08BE00E94B50061E095
:100960008CE00E94B5000E948F0260ED77E080E08D
:1009700090E00E9445010E9485025BCF0297A1058D
:10098000B105C9F760E08AE00E94B50060E089E047
:100990000E94B50061E085E00E94B50060E086E05D
:1009A0000E94B50060E028C084309105A105B10522
:1009B00041F10597A105B105F1F660E08AE00E94DA
:1009C000B50061E089E00E94B50060E085E00E942A
:1009D000B50060E023C060E08AE00E94B50060E0FE
:1009E00089E00E94B50060E085E00E94B50060E00B
:1009F00086E00E94B50061E087E00E94B50061E0FA
:100A000015C061E08AE00E94B50060E089E00E94C4
:100A1000B50060E085E00E94B50061E086E00E94DC
:100A2000B50061E087E00E94B50060E08BE00E94C5
:100A3000B50060E095CFE7E1F1E01382128288EE25
:100A400093E0A0E0B0E084839583A683B78388E039
:100A500091E09183808385EC90E09587848784EC96
:100A600090E09787868780EC90E0918B808B81EC7B
:100A700090E0938B828B82EC90E0958B848B86EC5C
:100A800090E0978B868B118E128E138E148E0895A4
:100A90008F929F92AF92BF92CF92DF92EF92FF928E
:100AA000CF93DF93EC01688179818A819B81611505
:100AB00071058105910521F464E279ED8BE597E0FC
:100AC0002DE133EF41E050E00E94EA0549015A016F
:100AD0009B01AC01A7EAB1E40E9409066B017C010D
:100AE000ACEEB4EFA50194010E941706DC01CB0126
:100AF0008C0D9D1DAE1DBF1DB7FF03C00197A10941
:100B0000B04888839983AA83BB83BC01CD019F77BA
:100B1000DF91CF91FF90EF90DF90CF90BF90AF909B
:100B20009F908F9008958F929F92AF92BF92CF9295
:100B3000DF92EF92FF92609100017091010180912C
:100B4000020190910301611571058105910521F460
:100B500064E279ED8BE597E02DE133EF41E050E081
:100B60000E94EA0549015A019B01AC01A7EAB1E4E0
:100B70000E9409066B017C01ACEEB4EFA501940163
:100B80000E941706DC01CB018C0D9D1DAE1DBF1D03
:100B9000B7FF03C00197A109B0488093000190936B
:100BA0000101A0930201B0930301BC01CD019F7725
:100BB000FF90EF90DF90CF90BF90AF909F908F907D
:100BC0000895609300017093010180930201909356
:100BD00003010895052E97FB1EF400940E94010660
:100BE00057FD07D00E941C0607FC03D04EF40C945E
:100BF000010650954095309521953F4F4F4F5F4FDF
:100C0000089590958095709561957F4F8F4F9F4F78
:100C100008950E943E06A59F900DB49F900DA49F3D
:100C2000800D911D11240895B7FF0C9409060E94B0
:100C30000906821B930B0895A1E21A2EAA1BBB1B67
:100C4000FD010DC0AA1FBB1FEE1FFF1FA217B30798
:100C5000E407F50720F0A21BB30BE40BF50B661FAE
:100C6000771F881F991F1A9469F760957095809572
:100C700090959B01AC01BD01CF010895A29FB001E9
:100C8000B39FC001A39F700D811D1124911DB29FC0
:100C9000700D811D1124911D0895EE0FFF1F059009
:100CA000F491E02D099481E090E0F8940C945806BA
:040CB000F894FFCFE6
:100CB400010000000000000016027F01AD01630284
:060CC400DE01BC01D001BD
:00000001FF
