:100000000C945E000C9486000C9486000C94860080
:100010000C9486000C9486000C9486000C948E033D
:100020000C9486000C9486000C9486000C94860038
:100030000C9486000C9486000C9486000C94860028
:100040000C9444030C9486000C9436040C94100415
:100050000C9486000C9486000C9486000C94860008
:100060000C9486000C948600000000080002010039
:100070000003040700000000000000000200000070
:1000800000250028002B0000000000240027002A83
:100090000004040404040404040202020202020331
:1000A000030303030301020408102040800102043B
:1000B000081020010204081020009A0611241FBE17
:1000C000CFEFD8E0DEBFCDBF11E0A0E0B1E0E8EABD
:1000D000FDE002C005900D92A431B107D9F721E0EF
:1000E000A4E1B1E001C01D92AC3CB207E1F710E021
:1000F000CEE5D0E004C02197FE010E94C706CD35B1
:10010000D107C9F70E9468040C94D2060C94000031
:1001100090E0FC01EB55FF4F2491FC01EF56FF4F9F
:100120008491882399F090E0880F991FFC01E9578A
:10013000FF4FA591B491FC01E358FF4F8591949135
:100140008FB7F894EC91E22BEC938FBF0895CF9387
:10015000809100018D3021F08F3F09F0D5C004C09F
:10016000ECE7F0E0C49170C08DE080930001ECE713
:10017000F0E0E491EF3F09F4C7C0E13009F442C078
:1001800040F1E23009F05FC01092B0001092B1006F
:100190008091B00082608093B0008091B100816056
:1001A0008093B100EEE9F0E0E491F0E0EE0FFF1F84
:1001B000E358FF4F859194919093BD018093BC01CA
:1001C000E2EBF0E0E491E093BB018DE00E94880057
:1001D0007CC014BC15BC84B5826084BD85B58160CB
:1001E00085BDEEE9F0E0E491F0E0EE0FFF1FE3588B
:1001F000FF4F85919491E2EBF0E0E491E093BF0131
:10020000C0E024C010928000109281008091810093
:10021000886080938100809181008160809381005B
:10022000EEE9F0E0E491F0E0EE0FFF1FE358FF4F3E
:1002300085919491E2EBF0E0E491E093BE018DE0D2
:100240000E9488000DC0CE2FC7FD5EC08DE00E94C9
:100250008800CC2309F441C0C230B9F1C130F1F4B7
:1002600080918100887F8160809381008FE79EE389
:10027000909389008093880084EF91E0A0E0B0E043
:100280008093C4019093C501A093C601B093C701A8
:1002900080916F00826080936F0036C0C230A1F5FC
:1002A0008FE78093B30084EF91E0A0E0B0E080930B
:1002B000C0019093C101A093C201B093C30180918A
:1002C00070008260809370001FC08091B100887FB1
:1002D00084608093B10089EFE4CF85B5887F836027
:1002E00085BD89EF87BD84EF91E0A0E0B0E0809309
:1002F000C8019093C901A093CA01B093CB0180912A
:100300006E00826080936E00CF91089590E0FC01B2
:10031000E859FF4F2491FC01EB55FF4F3491FC014C
:10032000EF56FF4FE491EE2309F43CC0222339F14C
:10033000233091F038F42130A9F0223001F584B552
:100340008F7D12C0273091F02830A1F02430B9F40D
:10035000809180008F7D03C0809180008F77809393
:1003600080000DC084B58F7784BD09C08091B00036
:100370008F7703C08091B0008F7D8093B000F0E054
:10038000EE0FFF1FE358FF4FA591B4919FB7F8946C
:10039000611104C08C913095382302C0EC913E2B42
:1003A0003C939FBF08953FB7F8948091B701909117
:1003B000B801A091B901B091BA0126B5A89B05C0BA
:1003C0002F3F19F00196A11DB11D3FBFBA2FA92FD4
:1003D000982F8827820F911DA11DB11DBC01CD0151
:1003E00042E0660F771F881F991F4A95D1F708953D
:1003F0008F929F92AF92BF92CF92DF92EF92FF9235
:100400006B017C010E94D3014B015C01C114D1043A
:10041000E104F104F1F00E94D301DC01CB01881961
:100420009909AA09BB09883E9340A105B10570F35B
:1004300021E0C21AD108E108F10888EE880E83E0B5
:10044000981EA11CB11CC114D104E104F10419F7D8
:10045000DDCFFF90EF90DF90CF90BF90AF909F9057
:100460008F900895CF92DF92EF92FF920F931F9398
:10047000CF93DF936C017A018B01C0E0D0E0CE1501
:10048000DF0581F0D8016D918D01D601ED91FC91D0
:100490000190F081E02DC6010995892B11F021967C
:1004A000EECF7E01C701DF91CF911F910F91FF9099
:1004B000EF90DF90CF900895089580E090E0089548
:1004C000FC01538D448D252F30E0842F90E0821B5A
:1004D000930B541710F0CF96089501970895FC01DF
:1004E000918D828D981761F0828DDF01A80FB11D6B
:1004F0005D968C91928D9F5F9F73928F90E008958F
:100500008FEF9FEF0895FC01918D828D981731F048
:10051000828DE80FF11D858D90E008958FEF9FEF9C
:100520000895FC01918D228D892F90E0805C9F4F72
:10053000821B91098F739927089584E191E00E94AD
:10054000910221E0892B09F420E0822F0895FC011B
:10055000848DDF01A80FB11DA35ABF4F2C91848D4C
:1005600090E001968F739927848FA689B7892C9381
:10057000A089B1898C91837080648C93938D848DD4
:10058000981306C00288F389E02D80818F7D8083D7
:100590000895EF92FF920F931F93CF93DF93EC0197
:1005A00081E0888F9B8D8C8D981305C0E889F9892F
:1005B000808185FD26C0F62E0B8D10E00F5F1F4F4A
:1005C0000F731127E02E8C8DE8120CC00FB607FCBC
:1005D000FACFE889F989808185FFF5CFCE010E94A5
:1005E000A702F1CF8B8DFE01E80FF11DE35AFF4FFB
:1005F000F0829FB7F8940B8FEA89FB898081806233
:100600000AC09FB7F894EE89FF896083E889F98969
:1006100080818370806480839FBF81E090E0DF9160
:10062000CF911F910F91FF90EF900895CF93DF939B
:10063000EC01888D8823C9F0EA89FB89808185FDDA
:1006400005C0A889B9898C9186FD0FC00FB607FC3B
:10065000F5CF808185FFF2CFA889B9898C9185FF7C
:10066000EDCFCE010E94A702E7CFDF91CF91089591
:1006700080E090E0892B29F00E949D0281110C946A
:10068000000008950E94CD061F920F920FB60F92A0
:1006900011242F933F938F939F93AF93BF93809198
:1006A000B3019091B401A091B501B091B601309120
:1006B000B20123E0230F2D3720F40196A11DB11DB7
:1006C00005C026E8230F0296A11DB11D2093B2019B
:1006D0008093B3019093B401A093B501B093B60198
:1006E0008091B7019091B801A091B901B091BA0180
:1006F0000196A11DB11D8093B7019093B801A093FD
:10070000B901B093BA01BF91AF919F918F913F9181
:100710002F910F900FBE0F901F9018951F920F9260
:100720000FB60F9211242F933F934F935F936F93C4
:100730007F938F939F93AF93BF93EF93FF9380919A
:10074000C0019091C101A091C201B091C301892B58
:100750008A2B8B2B59F19091BB01E091BC01F09158
:10076000BD018081892780838091C0019091C10162
:10077000A091C201B091C301181619061A061B06F2
:100780000CF03DC08091C0019091C101A091C201C7
:10079000B091C3010197A109B1098093C001909361
:1007A000C101A093C201B093C30129C0809100018F
:1007B000ECE7F0E0E4919FEF90930001E130B9F0B5
:1007C00098F0E230C9F4909170009D7F9093700092
:1007D00091E09093B0009091B100987F94609093D5
:1007E000B1001092B30008C010926E0005C0909145
:1007F0006F009D7F90936F0060E00E948601FF91E3
:10080000EF91BF91AF919F918F917F916F915F9188
:100810004F913F912F910F900FBE0F901F90189501
:100820001F920F920FB60F9211242F933F934F9365
:100830005F936F937F938F939F93AF93BF93EF9348
:10084000FF9384E191E00E94A702FF91EF91BF9195
:10085000AF919F918F917F916F915F914F913F9158
:100860002F910F900FBE0F901F9018951F920F920F
:100870000FB60F9211242F938F939F93EF93FF93B3
:10088000E0912401F09125018081E0912A01F0910D
:100890002B0182FD12C0908180912D018F5F8F739B
:1008A00020912E01821751F0E0912D01F0E0EC5ED5
:1008B000FE4F958F80932D0101C08081FF91EF91B4
:1008C0009F918F912F910F900FBE0F901F901895B1
:1008D000789484B5826084BD84B5816084BD85B51B
:1008E000826085BD85B5816085BD80916E00816027
:1008F00080936E00109281008091810082608093CD
:1009000081008091810081608093810080918000CE
:100910008160809380008091B10084608093B100F9
:100920008091B00081608093B00080917A008460F3
:1009300080937A0080917A00826080937A0080911F
:100940007A00816080937A0080917A008068809339
:100950007A001092C100E0912401F091250182E01B
:100960008083E0912001F09121011082E091220129
:10097000F09123018FEC808310922C01E0912801EB
:10098000F091290186E08083E0912601F091270112
:10099000808180618083E0912601F0912701808130
:1009A00088608083E0912601F09127018081806832
:1009B0008083E0912601F091270180818F7D8083E3
:1009C00083E00E94880082E00E94880086E00E9406
:1009D000880087E00E94880088E00E94880084E008
:1009E0000E9488008CE00E94880085E00E948800B8
:1009F0008DE00E94880061E083E00E94860161E052
:100A000082E00E94860161E086E00E94860161E04A
:100A100087E00E94860161E088E00E94860161E033
:100A200084E00E94860161E08CE00E948601C4E0BF
:100A3000D0E01091B101112311F060E001C061E03C
:100A400085E00E94860181E081278093B10168EEF4
:100A500073E080E090E00E94F801219751F760E098
:100A600083E00E94860160E082E00E94860160E0EF
:100A700086E00E94860160E087E00E94860161E0D6
:100A800088E00E94860160E084E00E94860160E0C8
:100A90008CE00E9486010E94A70068EE73E080E06F
:100AA00090E00E94F80160E083E00E94860160E02F
:100AB00082E00E94860160E086E00E94860160E09C
:100AC00087E00E94860160E088E00E94860160E085
:100AD00084E00E94860160E08CE00E9486010E9412
:100AE000A70068EE73E080E090E00E94F80160E00B
:100AF00083E00E94860160E082E00E94860160E05F
:100B000086E00E94860161E087E00E94860161E044
:100B100088E00E94860161E084E00E94860161E035
:100B20008CE00E9486010E94A70068EE73E080E0DE
:100B300090E00E94F80161E083E00E94860161E09C
:100B400082E00E94860160E086E00E94860160E00B
:100B500087E00E94860160E088E00E94860160E0F4
:100B600084E00E94860160E08CE00E9486010E9481
:100B7000A70068EE73E080E090E00E94F80160E07A
:100B800083E00E94860161E082E00E94860160E0CD
:100B900086E00E94860160E087E00E94860161E0B5
:100BA00088E00E94860160E084E00E94860160E0A7
:100BB0008CE00E9486010E94A70068EE73E080E04E
:100BC00090E00E94F80161E083E00E94860160E00D
:100BD00082E00E94860160E086E00E94860161E07A
:100BE00087E00E94860161E088E00E94860160E063
:100BF00084E00E94860160E08CE00E9486010E94F1
:100C0000A70068EE73E080E090E00E94F80160E0E9
:100C100083E00E94860160E082E00E94860160E03D
:100C200086E00E94860160E087E00E94860161E024
:100C300088E00E94860161E084E00E94860160E015
:100C40008CE00E9486010E94A70068EE73E080E0BD
:100C500090E00E94F80160E083E00E94860160E07D
:100C600082E00E94860161E086E00E94860160E0E9
:100C700087E00E94860160E088E00E94860161E0D2
:100C800084E00E94860160E08CE00E9486010E9460
:100C9000A70068EE73E080E090E00E94F80161E058
:100CA00083E00E94860160E082E00E94860160E0AD
:100CB00086E00E94860161E087E00E94860161E093
:100CC00088E00E94860161E084E00E94860161E084
:100CD0008CE00E9486010E94A70068EE73E080E02D
:100CE00090E00E94F80160E083E00E94860160E0ED
:100CF00082E00E94860160E086E00E94860160E05A
:100D000087E00E94860160E088E00E94860160E042
:100D100084E00E94860161E08CE00E9486010E94CE
:100D2000A70068EB7BE080E090E00E94F8010E9461
:100D3000380361CEE4E1F1E01382128288EE93E0A1
:100D4000A0E0B0E084839583A683B78385E091E03B
:100D50009183808385EC90E09587848784EC90E094
:100D60009787868780EC90E0918B808B81EC90E078
:100D7000938B828B82EC90E0958B848B86EC90E059
:100D8000978B868B118E128E138E148E0895EE0F14
:100D9000FF1F0590F491E02D099481E090E0F89414
:080DA0000C94D206F894FFCF79
:100DA800FF00000000C90232026002160391026FC0
:040DB80002830200B0
:00000001FF
